:020000022000DC
:1060000000000420756302005D6302005F6302000C
:106010006163020063630200656302000000000028
:1060200000000000000000000000000067630200A4
:1060300069630200000000006B6302006D630200F0
:10604000319302006F630200B1970200599E020073
:106050006F6302006F630200059602001998020048
:106060006F6302006F6302006F6302006F630200E0
:106070006F6302006F6302006F6302006F630200D0
:106080006F630200816E02006F6302006F630200A3
:106090001D6F02006F63020049F502006F6302008A
:1060A0006F6302006F6302006F6302006F630200A0
:1060B00049A502006F63020000000000000000001C
:1060C0006F6302006F6302006F6302006F63020080
:1060D0006F6302006F6302006F6302006F63020070
:1060E0006F6302006F6302006F6302000000000034
:1060F000000000006F630200000000006F630200F8
:10610000000000000000000000000000000000008F
:10611000000000000000000000000000000000007F
:10612000000000000000000000000000000000006F
:10613000000000000000000000000000000000005F
:10614000000000000000000000000000000000004F
:10615000000000000000000000000000000000003F
:10616000000000000000000000000000000000002F
:10617000000000000000000000000000000000001F
:10618000000000000000000000000000000000000F
:1061900000000000000000000000000000000000FF
:1061A00000000000000000000000000000000000EF
:1061B00000000000000000000000000000000000DF
:1061C00000000000000000000000000000000000CF
:1061D00000000000000000000000000000000000BF
:1061E00000000000000000000000000000000000AF
:1061F000000000000000000000000000000000009F
:10620000354936480A1A02D0072291438D4634494F
:1062100034480A1A06D00722914381F309880222E2
:1062200082F3148830483149314A00F044F831484B
:106230003149324A00F03FF831483249324A00F0E1
:106240003AF832483249334A00F035F83248334997
:10625000334A00F030F833483349344A00F02BF821
:1062600033483449344A00F026F83448344900228F
:1062700000F02CF833483449002200F027F8334866
:106280003349091A082902DB002202604160314AC1
:1062900090471F481F49884205D00268043003B464
:1062A000904703BCF7E700208646EC46002000211B
:1062B000294A9047FEE7884207D0521A05D0037852
:1062C00001300B700131013AF9D17047884202D098
:1062D00002700130FAE770470000042000E003205C
:1062E0000000042000000420844903003422002020
:1062F0004C250020D4630200D46302003421030043
:10630000844903003422002034220020B4220300F8
:10631000B4220300B4220300B4220300B422030019
:10632000B4220300B4220300B42203008449030012
:106330009C4C03004C2500204C2500204C250020BF
:106340003C3A00203C3A00203C3A00203C3A0020F5
:106350003C5A00209D63020011AA0200FEE7FEE7FE
:10636000FEE7FEE7FEE7FEE7FEE7FEE7FEE7FEE705
:10637000704700BF1048804710484FF0070188431E
:1063800085460F4880470F48016841F4700101605D
:10639000BFF34F8FBFF36F8FFFF732BF0A480B4930
:1063A0000B4A884207D0521A05D0037801300B708F
:1063B0000131013AF9D170477163020000000420F5
:1063C000F58F020088ED00E0A022030020220020CB
:0463D0003422002053
:1063D4007047000007B5044B0093044A402300F0C3
:1063E40032F803B05DF804FBF56302004D2500208C
:1063F4002DE9F84389461446B2B10F4B0F4E0325DD
:10640400002743F00108224609EB0701002005F0AC
:1064140027F80744241A48B933782BB14FF47A404B
:10642400C047013D02D13570BDE8F88301233370C4
:10643400002CE8D1F8E700BFC02203004C2500205F
:10644400704705F041B8F0B595B01C4616460846AD
:106454000D4602F00FFD1A9B0D93CDE9086400244C
:106464002346082205A928460A948DF82C400C944A
:1064740002F01DFD079B0293069B03939DF81430C5
:106484008DF8114003F00302012A1DD1BDF8144018
:10649400059EC3F3C203C4F383148DF81030A20025
:1064A40008230EA9284602F002FDC6F3952608AB80
:1064B4000093224602AB0EA9304600F077FB284633
:1064C40002F0DCFC15B0F0BD022AF8D1BDF816408C
:1064D400C3F3C203A4098DF810300827082C2646FC
:1064E40028BF08263B4632460EA9284602F0DFFCA8
:1064F400A41B08AB02AA31460EA8374400F0BAFB2D
:10650400002CEBD1DBE7000008B5FFF79AFF04216C
:10651400034800F0B9FA034B01225A7108BD00BFC9
:106524009022030034220020037813F0040216D0D2
:1065340003F00303012B03D0022B09D00120704781
:106544000A6800880232C0F3831002440A60F5E747
:106554000B684288023303EB92130B60EEE710469C
:10656400704700002DE9F04F87B000230446851CD6
:106574000DF107000F4690468DF8073000F0BEFE7F
:10658400454806683E60D0E90132134401339B1B41
:10659400824600F21C4600F5836900F21447AB42C0
:1065A4001BD30022B8F1000F70D0052363F3070258
:1065B40064F38912DAF80010DAF808309DF807005D
:1065C4000B4003330D444AF82320CAF8005000F06E
:1065D400B9FE012007B0BDE8F08F0121304601F07B
:1065E400D2FE484601F0E8FE384601F0E5FEDAF84E
:1065F4000400DAF808B0029000EA0B0003300AEB5A
:10660400800002A9FFF790FF029B50BB0BEA030234
:106614000AEB820203F1020CD2680392013303EA0B
:106624000B0B0AEB8B0B02F00302012ACDF808C016
:10663400DBF80C1022D0022A16D08346384601F02B
:10664400BEFE10B1029BCAF804305946304601F030
:106654009AFEDAE901231344DAF8002001339B1A85
:106664009DE70BEA0300C9E7BDF80E309B0903332D
:106674004FEA114B0CEB93030293DFE7BDF80C30A8
:10668400C3F383134FEA114B6344F5E7062363F323
:10669400070264F39F528DE7602600200B4B0C48E1
:1066A400FF2210B59A600022C3F81824C3E900221F
:1066B400C3F8142483F8202402F095FB044610B98F
:1066C400044802F03DFC204610BD00BF60260020B7
:1066D400B4210300E422030030B50A4C71B10A4A24
:1066E4000A49121BD20800239A4201D1002030BD6E
:1066F40031F82350854202D00133F5E7034654F8BC
:106704003300F4E7C8210300902203003422002060
:10671400094B013903EBC000032909D8DFE801F074
:106724000A020406042070470079704740797047D4
:106734000020704702207047C8210300034BD3E9AF
:106744000030C31A58425841704700BF60260020E9
:106754002DE9F04387B0FFF7F1FF0646002840F02B
:10676400FB807E4DC5F81804BFF34F8F6868AC6892
:1067740002902040033005EB800002A9FFF7D4FE0D
:10678400029B18B1D5F81824002A5FD004EA03024A
:10679400991C013305EB8202234005EB8303D26885
:1067A400DB68049302F00303022B0392029162D18B
:1067B400BDF80E306A484FEA9318B8F1500FC1463D
:1067C40028BF4FF0500969F38F1309F10801ADF8A0
:1067D4000E3002F020FB0746002800F0A88002F0EB
:1067E40049FB03A900230822384602F056FB02990C
:1067F40024EA01060136B600B14535D95FFA89F9B4
:106804007EB3F6B2A9EB0609214003315FFA89F49D
:10681400B146544E05EB810108234A46384602F03E
:106824003CFB36B109F1080322463146384602F0F2
:1068340034FB029B08F1030803EB98030293D5F899
:106844001834002B4BD1D5F810445BE02A689A42E7
:1068540004D86A60304607B0BDE8F08304EA030058
:1068640088E740493446D7E72140033108234A46A4
:1068740005EB8101DAE7012B59D1BDF80C3038481A
:10688400C3F38311062928BF062161F3891302315A
:106894008900ADF80C3002F0BEFA0746002846D055
:1068A40002F0E8FA0023082203A9384602F0F5FAB8
:1068B4000026BDF80C20C2F38312B300964203F104
:1068C4000803BCD202994A1C21400331029205EB11
:1068D40081010422384602F0E0FA0136E9E738463D
:1068E40002F0CCFAFFF72AFF80F00100C6B2B1E74C
:1068F400E3685B7923B1236839461B6820469847CF
:10690400E3681C68002CF3D1384602F0B7FA0DF1A5
:1069140007008DF8074000F0F1FCD5F818340BB9E6
:10692400029B6B609DF8070000F00CFDDAE7D5F8D8
:10693400104454B90C4B0D480D49C01AC00800044A
:1069440040F0020000F06EF8CCE7236820469B6814
:106954009847E3681C68ECE700267BE76026002084
:10696400B42103006C260020C82103000822030080
:10697400F02203002DE9F74F284C80460F4692463B
:1069840001A9012218469B46D4F80890FFF7EAFDB6
:1069940080B3019D0026A91C5E4506EB010233D19C
:1069A40000211F4801F0AEFC80F310006A1C02EACB
:1069B400090204EB8202000405EA0903033340EAF6
:1069C4001840D06014F8232068F3C50204F823208B
:1069D40034F8232066F3891224F8232054F8232062
:1069E40067F39F2244F8232002F0F80242F00102E8
:1069F40004F8232094F820341BB1FFF7A9FE0028E3
:106A0400FBD103B0BDE8F08F09EA020204EB820275
:106A14005AF82630D3600136BEE700BF6026002056
:106A24007C2A002000231A46FFF7A4BF07B50123E0
:106A3400019201AAFFF79EFF03B05DF804FB07B5BE
:106A4400CDE9002302236A46FFF794FF03B05DF803
:106A540004FB1FB5CDE90123069B039301AA03237D
:106A6400FFF788FF05B05DF804FB1FB5CDE90023EF
:106A7400069B0293079B03936A460423FFF77AFF5E
:106A840005B05DF804FB000030B50F49D1F81024BF
:106A9400002314463CB9C468237152B9C1F81004E8
:106AA4002260184630BDE46825799D4206D02468EA
:106AB400F0E7D268116821601060F2E701330A2B15
:106AC400E7D14FF0FF33ECE760260020094A38B5E0
:106AD4000123D2F8104482F820341D4604B938BD8D
:106AE400E3685D71236820465B689847E3681C6827
:106AF400F4E700BF60260020037A052B10B50C468E
:106B04000FD0437A23B1084A0849204601F0BAFC61
:106B14000749204601F0B6FC2046BDE8104001F0CC
:106B2400A6BC002AF8D0F3E73B230300C33A0300D2
:106B3400C92C0300C38873B504460D4633B1144A07
:106B440000921449144A284601F09CFC217A052934
:106B54001CD0637A4BB1A088FFF7DAFD0F4B1049C4
:106B640053F82020284601F08DFC227A0D4BA08892
:106B740053F822600021FFF7AFFD0B49034632466C
:106B8400284602B0BDE8704001F07CBC02B070BD84
:106B94003B2303004823030040230300082303008E
:106BA400C33A03006C230300602303002DE9F04380
:106BB40085B01F460C9D002306460C46904695F86A
:106BC4000C902B7329463846FFF7B4FFB8F1060F33
:106BD40009D8DFE808F00412181F283340003146B2
:106BE400284601F04FFC002229463846FFF784FF6F
:106BF40085F80C9005B0BDE8F0832268314628463C
:106C040001F040FCEFE7D4E900233146284601F0C7
:106C140039FCE8E7A36800933146D4E90023284609
:106C240001F030FCDFE7E3680193A3680093314689
:106C3400D4E90023284601F025FCD4E72369029314
:106C4400E3680193A36800933146D4E900232846FE
:106C540001F018FCC7E76369039323690293E368AF
:106C64000193A36800933146D4E90023284601F038
:106C740009FCB8E708292DE9F84F80460E46174667
:106C84001C4636D8002593F80C901D7319461046FF
:106C9400FFF750FFDFF87CA0DFF87CB0AE422AD9C2
:106CA40018F805205946204601F0ECFB0135082D63
:106CB400F4D11649DFF864B0204601F0E3FB002567
:106CC400AE421DD918F805A050460BF043F9002830
:106CD40014BF52462E225946204601F0D3FB0135FB
:106CE400082DEDD1012221463846FFF705FF84F82F
:106CF4000C90BDE8F88F5146204601F0C3FBD5E760
:106D04000349204601F0BEFBE9E700BF3623030038
:106D140034230300322303002C230300382303000D
:106D24001FB50021039001AA44F20100CDE901112D
:106D340000F004F805B05DF804FB000010B572B66D
:106D4400FFF7C4FEFFF704FD0028FBD1104B114CE4
:106D54001149E41AE408240444F00100FFF762FE38
:106D64000E4B1B68DB0700D500BE0D4944F0020042
:106D7400FFF758FEBFF34F8F0A490B4BCA6802F462
:106D8400E0621343CB60BFF34F8F00BFFDE700BF4A
:106D9400C821030008220300CB230300F0ED00E028
:106DA400D723030000ED00E00400FA05094A5378F4
:106DB40091780133DBB2994208BF002311789942DC
:106DC4001FBF03705078182303FB002014BF043046
:106DD400002070471C2B002073B5054600240DF1DC
:106DE40007000E468DF8074000F088FA0DF1060002
:106DF400FFF7DCFF90B10670094B9DF80620456053
:106E04005A709DF8070000F09DFA24B9054B4FF421
:106E14008012C3F80021204602B070BD0424F0E7BC
:106E24001C2B002000E100E0024B4FF43C6043F0D7
:106E340001031847F023030038B50C4B0C4C4FF4F6
:106E44000032C3F8802001254FF48033C4F848335E
:106E5400C4F808336560FFF7E7FF064BA56000241C
:106E64001C60FFF7E1FF044B1C7038BD00E100E03B
:106E740000100140382C0020292C0020F8B51F4BAD
:106E84001F491B680025C1F84051C1F84451C1F89D
:106E94004851C1F84C51C1F80051C1F804514BB3E9
:106EA400D1F8044517490968641A24F07F442F4631
:106EB4001A68A24209D8A41A15441A7CDE691AB1C8
:106EC4001F74D3E905209047AEB90F4A0F4B1178D0
:106ED4001B788B4205D10133DBB2022B08BF0023A0
:106EE400137012780A4B43F822500A4B4FF4801265
:106EF400C3F80021F8BD3346DAE700BF3C2C00207C
:106F040000100140382C0020352C0020342C0020A7
:106F14002C2C002000E100E02DE9F04FA04AA1490B
:106F240013780978A04D994285B03CD00133DBB287
:106F3400022B08BF002313709C4912789C4B0F68E6
:106F440053F822003B1823F07F4300220B602B6888
:106F540016461446944613B942B12B6006E01968EC
:106F640081420ED902B12B60091A19604FF0010851
:106F74002B68DFF844A201930027BEB9DFF840B2C2
:106F840066E0401A0C44D968C3F800C0D3F81CE08A
:106F940031B13A1922F07F42C3E90121DE611E4674
:106FA40001227346D7E70026B046E1E73446F66986
:106FB4007E4A63681268DFF80CC2A068991A21F04F
:106FC4007F41614500F2A5800144216001222274C1
:106FD4002A680023C4E90133E361002A40F0A28057
:106FE4002C60CAE75A1C9BF80210D2B291428BF86B
:106FF400002004BF00228BF80020182202FB03B3F8
:107004001A799C68022A1CD0032A12D0012A1FD1A3
:10701400207CE8B9D3E90312A2605A69E2609A6954
:10702400644BA2611B78002B0CBF0B4603466360C4
:10703400BEE700222B681146002B66D142B12B60BB
:1070440006E029680A468946002A59D10023237498
:107054009BF800309BF801209A42C3D12B682FB9CA
:10706400019A9A4202D1B8F1000F43D0002B73D099
:10707400D3F800A0504D4D4BD5F804751C68DFF8CB
:1070840048813E1B98F8003026F07F4603369BB9B2
:107094004FF48033C5F84433C5F80433474B4FF4F9
:1070A40000324FF00109C3F880211A60C5F800903E
:1070B400FFF7BAFE88F80090B2452CBF5444A419D7
:1070C40024F07F44C5F84045D5F80435DB1B23F094
:1070D4007F43E41B033324F07F44A3420AD9D5F849
:1070E4000435C5F84035FFF79FFE344B4FF40032AA
:1070F400C3F800212F4B00221A7005B0BDE8F08FB1
:1071040094422CD09146D2699EE719740122DB691E
:1071140092E7D31A23F07F43834234BFC31A002378
:10712400236053E721681368994213D8591A1160F0
:10713400E26155E7091AD8691A4638B10346186856
:107144008842F7D3401A1860184613462160E0615C
:10715400DC6112E71346F2E7FFF76EFECAE74C451F
:1071640011D1CB692B6073B9DFF840E00120CDE980
:107174000212CAF80800CEF800300E4B1870FFF760
:1071840053FEDDE902121368D269C9F81C2012B15A
:107194001068034413602B68994218BF012755E710
:1071A400342C0020352C00203C2C0020382C0020CE
:1071B4002C2C0020282C00200010014000E100E0CD
:1071C4001C2B0020FEFF7F00292C002008B5FFF7B0
:1071D40033FE104B00200B2218809A700E4B18605F
:1071E4000E4B18700E4B18700E4B4FF48012C021CA
:1071F400C3F8802183F814131A6002F18042A2F5C7
:107204006F22C2F8080583F81113074BD2F804253E
:107214001A6008BD1C2B00203C2C0020342C0020BC
:10722400352C002000E100E0382C0020074B9B782F
:107234004BB132B128B10368187C20B959745A6132
:107244007047072070470820704700BF1C2B0020A0
:107254002DE9F7431E4FBB7805460E469046A3B36F
:1072640098B304292FD943697BB3437C0024012BB1
:107274000DF107000CBF8946A1468DF8074000F0C8
:107284003DF80DF10600FFF791FDD0B10123037025
:10729400104B4560D3F80435C0E90498C0E90236C0
:1072A4009DF806307B709DF8070000F04BF824B978
:1072B400094B4FF48012C3F80021204603B0BDE807
:1072C400F0830424EFE70724F7E70824F5E700BF79
:1072D4001C2B00200010014000E100E0064A9278D7
:1072E4003AB130B1426922B1002202740221FFF79F
:1072F40073BD0820704700BF1C2B002070B5EFF34E
:10730400108672B60C4A946801239CB993600B4BA7
:107314000B4DD3F8801029401160C3F88050D3F886
:10732400841051604FF0FF32C3F88420047006B912
:1073340062B670BD0370FAE7402C002000E100E063
:10734400FC06FFBD084B9A6810B55AB150B9EFF36B
:10735400108172B6054A1C6814605C6854609860B9
:1073640001B962B610BD00BF402C002000E100E06E
:1073740070B5064D0646002455F8043B0BB1304663
:1073840098470134042CF7D170BD00BF582C00205D
:10739400033080B240F2FD33984230B51FD8124B0F
:1073A4001A783AB91C895D892C440444A4B2B4F512
:1073B400806F0AD31A7DA2B99A8BDC8B22440244D3
:1073C40092B2B2F5806F0CD201220A8014461422C4
:1073D40002FB04335A8910445881002030BD09202F
:1073E400FCE70720FAE700BF8C2C00200B4A0C4B6B
:1073F4005188142000FB0131CB6833B9042049685B
:1074040010700122074801F0B9BA05230649137028
:1074140002238B80012200230968F3E7702C0020EB
:107424008C2C002020220020542D002007B500239E
:1074340005490093054A09680548082301F008FA3C
:1074440003B05DF804FB00BF542D002004240300A6
:107454002022002007B50023009301460823034A95
:10746400034801F0F5F903B05DF804FBFC230300C5
:107474002022002013B500230C4600930146042368
:10748400074A084801F0E4F938B9074B142202FB13
:1074940004340123237402B010BD0E20FBE700BFA7
:1074A400F8230300202200208C2C002037B50A4842
:1074B4000A4B42689C881968538803250333057076
:1074C4009BB2002000909B0001EB8401044801F072
:1074D400BFF903B030BD00BF702C0020542D002034
:1074E4002022002010B50146044800F03FFE1C2273
:1074F400044600210AF097FD204610BD402D0020CF
:1075040068B10268084B9A4209D14068074B984217
:1075140007D0013398420CBF012003207047032099
:1075240070470020704700BFDEC0ADDEFE011EF1D3
:107534004388033300EB8303994209D382884FF6CF
:10754400FF739A4206D00088B0FA80F04009704771
:1075540002207047012070472DE9F8430223DFF829
:1075640060800B800D46174600F5805600F1080434
:107574004FF00109B4420FD2236801330CD03146D5
:107584002046FFF7D5FF48B10FB187F800900228D5
:107594000BD14FF480632B80BDE8F883A368D8F83F
:1075A4000020934201D9C8F800302B886288033345
:1075B40013442B806388033304EB8304DAE700BFAE
:1075C400842C0020154A142303FB002070B50B689B
:1075D40044680D4604F58056ABB15C88033403EB74
:1075E4008404B4420DD2236801330AD031462046C4
:1075F400FFF79EFF01280BD010F0FF0F05D00228E3
:10760400EFD1002003E00834EBE72C60012070BDCB
:107614006388033304EB8304E3E700BF8C2C00206E
:10762400436873B504460D466BB3244AD1688B4254
:1076340029D31269934226D813F0030223D1204997
:107644000089098988421ED12068996888421AD124
:107654001C494868834203D900F5805083420ED305
:107664008A6993420DD902F58052934209D20123CB
:107674002B800020B0FA80F0400902B070BD1346A0
:10768400F6E70A20F6E700232B801E46019601A99F
:107694002888FFF797FF30B92B8801339BB2012B61
:1076A4002B80F3D9E9E7019B226899689142EED1D6
:1076B4006360034B1B892381DFE700BF2022002086
:1076C400702C00208C2C00202DE9F8431C461C4B08
:1076D4001B7806460F4615466BB372B36CB3DFF8DE
:1076E40068804FF01409A388012B01D90A2020E0F7
:1076F40009FB03F318F803302BB92146A088FFF7E0
:1077040061FF20B92060A3880133A380EBE72368DD
:107714001EB1998832889142EFD11FB119883A88F5
:107724009142EAD19A68C5E90023064B1B892B8153
:107734000020BDE8F8830220FBE70520F9E700BF3D
:10774400682C0020702C00208C2C002008B5074BDE
:10775400191D5888FFF736FF18B1BDE80840FFF738
:10776400A5BEBDE80840FFF741BE00BF702C002055
:107774002DE9F04FA04FDFF8A49289B00646B84631
:107784003B6823B949469D4800F02AFD3860D8F883
:10779400005029784B1E052B00F2FA80DFE813F025
:1077A40006005E005E00EE00EE005C0126B1944B24
:1077B40000225A600124ECE02B79032B1DD8DFE86A
:1077C40003F015022A358F490B78022B084619D08D
:1077D4000B7D022B4FF0010316D114225343C21820
:1077E4000020C8545068FFF735FE03E001232B71D5
:1077F400FFF71CFE002800F0BC80814B00225A6079
:107804000E24C6E00023E8E77D4A1370002353608A
:1078140041F61D54BDE07C497C48002302222B71B3
:107824008A800122096801F0A9F8E3E7764C002672
:107834002E712068734DFFF70DFE754BD4F800C010
:107844005A8814235343EA18EE5451682160A188DE
:10785400C2F804C011810222A280CBE7B5F814A0BB
:10786400AA7DDFF8A0B1AEB1022AEB8806D91421B3
:1078740001FB0AB1DA1C088902440A81142202FBC2
:107884000ABAC3F57F43BAF80A20FD331344AAF8B1
:107894000A308FE7142303FB0AB318895C6804EBEE
:1078A4008004062A68D8DFE802F0274D35431D59C5
:1078B400040041F61D54AA7DEB88022A06D914213E
:1078C40001FB0AB1DA1C088902440A81142202FB72
:1078D4000ABAC3F57F43BAF80A20FD331344AAF861
:1078E4000A3056E04B484C4900234360AB690360BF
:1078F400FFF796FE002871D00223AB750023009396
:107904000423EA182146414800F0A2FF002830D0A1
:107914000E24D0E72B69002B14BF03230123AB757E
:107924000023009305F10C02042304F10801EAE7A3
:107934000123AB750022EB8800929B002A6904F1B5
:107944000C01E0E703290CBF05230623AB750023D4
:107954000093042305F10802E118D4E70623AB756C
:107964002D4B19882B4B5868FFF784FD04460028DB
:10797400A1D109B0BDE8F08F0F249CE7002E7FF45D
:1079840019AF2B79012B4BD0E3B1022B3FF440AF5D
:107994000F241422002103A80AF045FB41F61D53CD
:1079A4009C4208BF0024D8F8003004941A78023AA4
:1079B400042A00F20581DFE812F0E600F200150166
:1079C4001D01240102232B710DF10A01EB680393BD
:1079D40003A8CDE90466FFF723FE08B90A24D8E713
:1079E4000498BDF80A108388EB8003882B81FFF785
:1079F40041FD044627E000BF882C0020402D0020D4
:107A0400682C00208C2C0020542D002020220020E3
:107A1400702C00204C2C0020602D0020802C002095
:107A2400DFF8FCA103AA53463146A81DFFF74CFE1C
:107A3400044658B9BAF804100498FFF71BFD04462D
:107A44000A2C3FF4E5AE002CA3D192E7082231467C
:107A540050460AF0E8FAF3E7002E7FF4ABAE6B4B26
:107A64001A7BAAB11E731A78013A062A90D801A18A
:107A740051F822F01F7B0200457B0200637B020069
:107A8400697B0200957902006F7B0200817B020012
:107A94001A78072AE7D801A151F822F0C17A020026
:107AA4006B7A02006B7A0200E77A0200FB7A02002A
:107AB4001B7B02001B7B0200E37A02001A895449F3
:107AC40001321A8100225A801A730A78B2FA82F2B9
:107AD40052099A720A7DB2FA82F25209DA720122CA
:107AE40007E04C4958688A884088033202448A80F7
:107AF40002221A70B7E7464C5A884649142505FBFA
:107B040002420868546850608888108102228A8082
:107B14000C600622EDE70722EBE79A7A32B9DA7AAB
:107B24008AB900221A705A805A6071E638490022D4
:107B34009A72CA68002AF2D1097C0029EFD05A80CF
:107B4400FFF704FE55E70022DA72314A116A002970
:107B5400E7D192F82420002AE3D00122EFE7FFF7CF
:107B6400A5FC46E7FFF742FC43E7294A5B8814215A
:107B740001FB03235868FFF76DFC3AE700225A60C3
:107B8400FFF754FC35E701228DF80C201A89ADF873
:107B940018209A88DB68ADF81A20059310E00222B9
:107BA4008DF80C201A89ADF818209A88ADF81A209F
:107BB400DA689B7D05929A1F534253418DF81C301D
:107BC40003A8FFF7D5FB002649461348C8F8006010
:107BD40000F031FB0121114800F0E0FB00287FF4A4
:107BE400CFADC6E603228DF80C20DA88ADF8182054
:107BF4001A89CFE70422DB888DF80C20ADF8183001
:107C0400DEE705238DF80C30DAE700BF702C002086
:107C14008C2C0020542D0020402D0020502D0020BD
:107C2400642D00204068FFF7A3BD000008B50121C2
:107C3400044800F09DFB18B9BDE80840FFF798BD63
:107C440008BD00BF502D00202DE9F3419846354B67
:107C54001B7806460D46002B5BD000295BD00988B3
:107C64004FF6FF73994258D06B88002B55D06B6840
:107C74009B0754D14AB92F890DF102013846FFF709
:107C840087FB30B102B0BDE8F08113885788ADF8A6
:107C9400023001A8FFF726FC044658B9BDF80230AB
:107CA400214A142101FB032358890338C01B58813E
:107CB4000820E7E700238375BDF8023083826B68F0
:107CC400036180F800800121184800F05CFB2B88D8
:107CD4002381B8F1030F6B88A38004BF0423A37529
:107CE4004FF0000508BF3368E06008BFA361E78078
:107CF400658101A90E4800F063FA36B1E368336088
:107D04000C4B75601B89B5723381FFF78FFF002020
:107D1400B8E70220B6E70520B4E70420B2E7032061
:107D2400B0E700BF682C00208C2C0020842C00209D
:107D3400402D0020702C002008B5084B1A68042A36
:107D440009D01968064A42F821000121184600F0BA
:107D54001AFB002008BD0C20FCE700BF5C2D0020AE
:107D6400582C00202DE9F04F14228BB000210DEB8C
:107D740002000AF058F9744A137803F0FF01CDE9C0
:107D840001123BB105A8FFF7F3FA002738460BB000
:107D9400BDE8F08F029B181D00F00BFB0028F4D106
:107DA4004FF010234FF080525B6911695269674CA0
:107DB400581C08BF02FB01F323610022A3F54053C2
:107DC4006349E360204600F00FFD03940746002852
:107DD400DCD11C238C225F495F48DFF88891DFF8EF
:107DE400888100F08EF93D46BA464FF0030B3C46BD
:107DF400039BDE68564430463146FFF781FB012879
:107E04004DD042B2002A36D0032822D106F5805242
:107E14000868013040F08A8004318A42F8D1D9F8E8
:107E240000203AB902220123C9F80060A9F804200D
:107E340001930CE014226243022008EB020108F8CB
:107E44000200464A4E60548001340881A4B245F0D1
:107E540001050AF5805ABAF5405FC9D1BBF1010F9B
:107E640098BF0025EDB2022D03D0062D35D0002D8C
:107E74003CD10B278AE71421614308EB010008F881
:107E8400012001F110020831466042444144304669
:107E9400FFF762FB45F002050134A4B2D9E7019B68
:107EA40063B11422624308EB0201022008F80200C5
:107EB4000134D9F800204A600881A4B2002228497C
:107EC400C9F800603046FFF747FBB9F80420022ADE
:107ED4000CBF042208221543BBE7029A0123137046
:107EE40005A800235360FFF743FA4FE704A8FFF700
:107EF400F9FAC8B10123013D03700A2D09D8DFE85E
:107F040005F006080608070807080F110F000023EC
:107F1400037104A9104800F053F9FFF787FE35E711
:107F24000323F5E70223F3E708272FE70BF1FF32DA
:107F34001FFA82FB1422624308EB02014E60032104
:107F440008F80210A8E700BF682C002020220020B7
:107F5400F8250300B42C0020402D0020702C0020B4
:107F6400582D0020542D00208C2C002073B50D4674
:107F74000446C8B1C1B10DF10601FFF751FBA8B128
:107F84000B4BBDF806006668142202FB0030012189
:107F94000C3000F0F8F963682E600C336B60012339
:107FA400A372002002B070BD0520FBE70A20F9E7A8
:107FB4008C2C002013B50446A8B10DF10601FFF77F
:107FC4002FFB90B10B4ABDF80630142101FB0323AB
:107FD400DA6862B1A27A52B1DA680020013ADA6052
:107FE400A07202B010BD0520FBE70A20F9E70620C5
:107FF400F7E700BF8C2C002002230022FFF724BEE9
:1080040018B103230022FFF71FBE052070470000AC
:10801400104B1B7813B50446ABB14FF6FF7398426F
:1080240013D001A8FFF75EFA88B10523037001237A
:108034000371C48001A9084800F0C2F8FFF7F6FDF7
:10804400002002B010BD0220FBE70420F9E708205D
:10805400F7E700BF682C0020402D00200E4B1B7852
:1080640007B5A3B101A8FFF73DFA90B10623037049
:1080740001A90A4800F0A4F8094B1A780AB10122B0
:108084001A73FFF7D3FD002003B05DF804FB022050
:10809400FAE70820F8E700BF682C0020402D0020F4
:1080A400702C002007B5ADF80600ADF804100DF1F2
:1080B400060001A9FFF708FB03B05DF804FB07B550
:1080C4001346ADF806000A4600200DF10601FFF73D
:1080D400FBFA03B05DF804FB07B51346ADF80600E0
:1080E4000A460DF106000021FFF7EEFA03B05DF831
:1080F40004FB20B119B103680B6000207047052010
:10810400704710B561B1B2FBF3F403FB1424A4B2BD
:1081140044B9C0E9001484608281C381204610BD43
:108124000E20FCE70920FAE782B050E8022FC1884C
:10813400B2EB324F4FF0000317BF92B241EA014154
:1081440042EA014104E04268B2EB324F08BF012326
:1081540040E80212002AE8D18DF807309DF8073074
:10816400002B0CBF1120002002B0704737B550E837
:10817400013F9DB2C48925448489A54228BF2D1B93
:108184000489A54202BFBFF32F8F002207E0C5EA8E
:10819400030540E80154002CE9D14FF001028DF8A9
:1081A40003200193019B9DF803200B6002F0FF0361
:1081B40022B10B880068184403B030BD1846FBE7B1
:1081C4000A884B889A4209D150E8012FC2EA024238
:1081D40040E80123002BF7D10120704700207047AD
:1081E40037B550E8023F1FFAA3F5C488A54202BF81
:1081F400BFF32F8F00220DE0C48925448489A54252
:1082040028BF2D1BC3EA054540E80254002CE8D1E1
:108214004FF001028DF803200193019B9DF8032088
:108224000B6002F0FF0322B14B880068184403B0CE
:1082340030BD1846FBE70A884B889A4209D150E8BA
:10824400022FC2EA224240E80223002BF7D1012088
:1082540070470020704701F01F024B090121914033
:1082640000EB830000F063B84B0910B501F01F0464
:108274000121A14000EB830000F04EF8E04000F043
:10828400010010BD01F01F0301229A404B0900EBCD
:108294008300D14300F061B84B0901F01F0150F88D
:1082A4002300C84000F0010070472DE9F0474E1E3E
:1082B400760980460F460136002558F8254008EB1C
:1082C4008509E44394FAA4F4B4FA84F44FEA451A11
:1082D400202C06D10135AE42EFD83C462046BDE8FD
:1082E400F0875444A742F5D921464046FFF7BCFF26
:1082F4000028F3D0D9F80040E44394FAA4F4B4FA83
:1083040084F4E5E750E8002F0B4640E8003C9CF07D
:10831400000FF7D11046704750E8002F42EA0103DE
:1083240040E8003C9CF0000FF6D11046704750E83E
:10833400003F43EA010240E8002C9CF0000FF6D114
:108344001046704750E8002F02EA010340E8003C61
:108354009CF0000FF6D11046704750E8003F03EA46
:10836400010240E8002C9CF0000FF6D11046704743
:1083740050E8002F02EB010340E8003C9CF0000FA2
:10838400F6D11046704750E8003F03EB010240E885
:10839400002C9CF0000FF6D11046704750E8003FC7
:1083A400A3EB010240E8002C9CF0000FF6D110462C
:1083B40070470121FFF7B0BF0121FFF7B8BF0021CB
:1083C400FFF7C0BF10B590B1D0E9012301689B1A33
:1083D400DBB20A60013BDBB2FF2B026802D1002052
:1083E400107110BD11684C1C14600B70F2E70E2064
:1083F400F7E737B5054600240DF107008DF807406F
:10840400FEF77CFF2A686B68116899420ED9481EF2
:10841400106011F8014CEB68298A01FB0434AB6845
:1084240011791B1ADBB2994238BF13719DF807000A
:10843400FEF788FF204603B030BD37B5054600235C
:108444000DF107000C468DF80730FEF757FF2A6838
:108454001368591C1160E968641A298AB4FBF1F4A1
:108464001C709DF80700FEF76DFF03B030BD8268F5
:1084740010B504462AB1436901680069984700238E
:10848400A36010BD0EB403B5039921B104AB01AAD6
:10849400019300F06DF802B05DF804EB03B070478F
:1084A400826830B40468551C8560A154D0E9013257
:1084B4009A4202D330BCFFF7DABF30BC70470000E9
:1084C4002DE9F84F9946DDE90A4317468246884666
:1084D4000A460126BA420FD24E4538BF4E4613F023
:1084E400010B01D164B900240125B9F1010F1AD996
:1084F40009F1FF397D43F8E7B2FBF7F20136E9E70A
:108504009B070ED5B9F1000F0CBF30252025A642DC
:10851400EAD2013C29465046FFF7C2FF002CF6D1AF
:10852400E1E72025F3E7B8FBF5F39F42E2D9DFF852
:108534003C90B8FBF5F3504619F8031005FB13887B
:10854400FFF7AEFFB5FBF7F3BD4207D2BBF1000F57
:1085540002D00CB1A64203D3BDE8F88F1D46E8E76C
:1085640020215046013CFFF79BFFF2E70C24030057
:108574002DE9F74F054617468846002900F031815A
:1085840018F8011B49B92B7B002B00F02A812846DF
:1085940003B0BDE8F04FFFF76ABF252940F0C08063
:1085A400002698F800302D2B424608F1010823D00C
:1085B400302B24D02B2B25D000242A2B02F10101AF
:1085C40023D13B681A1D1B683A601C440A46137881
:1085D4002E2B26D101324FF0000A104610F8011B51
:1085E400A1F1300CBCF1090F1DD80A2303FB0A13B7
:1085F400A3F1300A0246F0E746F00106D1E746F05F
:108604000206CEE746F00406CBE711F8013CA3F1DD
:1086140030000928DBD80A2202FB0434303C0A4625
:10862400CBE74FF0000A12F8011B01F0FB006828A9
:108634009046F8D069290ED04AD8582964D006D873
:1086440025296DD098F80030002B99D19BE7632938
:1086540062D06429F6D13A68D2F80090111D89EAF3
:10866400E9723960A2EBE9724FF0010B092A5BDC75
:10867400D34538BFD3462CB1B9F1000F01DB7107E4
:1086840000D5013CB20702D5BAF1000F04D0F307BC
:1086940002D4002C4ED10024B9F1000F52DAC9F1F2
:1086A40000092D212846FFF7FBFE06F00302022AEB
:1086B40005D1BAF1000F02D1002C47D10024CDE935
:1086C400004653460A2249462846FFF7F9FEB9E711
:1086D40073294CD014D87029B4D13B681A1D3A6060
:1086E400302128461C68FFF7DBFE78212846FFF777
:1086F400D7FE00220823CDE9003221461022E3E709
:1087040075292BD078299DD139680A1D3A60CDE9A5
:1087140000465346102228E03B681A1D19783A6037
:108724002846FFF7BDFE8DE70A230BF1010BB2FBD0
:10873400F3F29BE7A345AFD220212846013CFFF783
:10874400AFFEA6E77007B0D52B21ABE7A345B6D2A1
:1087540030212846013CFFF7A3FEADE73968CDE997
:1087640000460A1D3A6053460A220968ACE73B6892
:108774001A1D3A60F107D3F8009020D4B9F1000F24
:1087840025D0484609F0A4FC0646B44200D9C4B931
:1087940009F1FF3920E028460136FFF781FE19F878
:1087A40006100029F7D1A642BFF44CAF002C3FF4C9
:1087B40049AF20212846013CFFF772FEF3E700266B
:1087C400EDE720212846013CFFF76AFEDDE74E462F
:1087D400DBE72846FFF764FE19F8011F0029F8D1EA
:1087E40030E703B0BDE8F08F07B50B4688B9124BEC
:1087F4001248134AC01A0E23C0080093114B0004F8
:10880400114940F00100FEF724F90E2003B05DF891
:1088140004FB4BB9084B09480C4AC01AC0080E2384
:1088240000930004074BEBE703601B68114603B099
:108834005DF804EB184700BFC821030020220300A1
:10884400C92403001C240300CE240300452503008F
:108854002DE9F34188B93D4B3D483E4AC01AC00852
:108864000E243D4B009400043C4940F00100FEF707
:10887400F0F8204602B0BDE8F0814AB9334B3448E1
:10888400374AC01AC0080E2400040094324BEBE7A8
:10889400D0F800C0BCF1000F09D12C4B2C48314A50
:1088A400C01AC0080824000400942B4BDCE74BB921
:1088B400264B27482C4AC01AC008092400040094F7
:1088C400254BD1E74768D7F80480B3FBF8F708FBDA
:1088D40017374FB11D4B1E48244AC01AC00809243B
:1088E400000400941C4BBFE78F0709D0174B1848AE
:1088F4001F4AC01AC008102400040094164BB3E7A2
:1089040012F0030F09D0114B11481A4AC01AC008BB
:10891400102400040094104BA6E7C768B9420BD397
:108924004C1E05691C44AC4206D8DCF80C40A44635
:1089340002B0BDE8F0416047044B05480E4AC01A36
:10894400C008102400040094034B8DE7C8210300E1
:1089540020220300C92403002E240300CE24030094
:108964004B2503003F250300FE240300512503008B
:108974007B25030093250300B6250300F7B580B9D2
:108984002A4B2B482B4AC01AC0080E242A4B0094A9
:1089940000042A4940F00100FEF75BF8204603B0CA
:1089A400F0BDD0F800C0BCF1000F09D11F4B204826
:1089B400234AC01AC0080824000400941E4BE8E7A8
:1089C4004AB91A4B1A481F4AC01AC008092400049D
:1089D4000094194BDDE74768D7F800E00EF1FF3744
:1089E4000F4209D0114B1248174AC01AC00810246C
:1089F40000040094104BCCE7C768B9420CD34C1E5A
:108A040005690EFB0244AC4206D8DCF81040A446CB
:108A140003B0BDE8F0406047044B05480B4AC01A58
:108A2400C008102400040094034BB2E7C8210300DB
:108A340020220300C924030041240300CE240300A0
:108A44003F250300FE240300542403007A2403007A
:108A540029DF704728DF704770B503689D6886B0CA
:108A640004460E466DB114220021684609F0DBFA73
:108A7400A3680593237901962BB1012B0DD0684689
:108A8400A84706B070BD01238DF800302369029316
:108A9400E368039363690493F1E702238DF80030DC
:108AA400E3681B030293F5E708467047002070470C
:108AB400024B187A003018BF01207047082E00209E
:108AC400034B187A0122B0FA80F05A7440097047B7
:108AD400082E002008B510461A4609F07BFA00203B
:108AE40008BD000008B514220021044809F09BFACF
:108AF4000348FFF719FB002008BD00BF082E002023
:108B0400F82D002010B5094C094B43602046FFF7AF
:108B140050FC40B906F0FCFC1C2320748C2205494F
:108B24000548FFF7EEFA002010BD00BF082E002014
:108B3400EC2503006C2D0020F82D002070B5244D89
:108B4400244E2B7A2C463BB923492448FFF748FB93
:108B5400306008B9686070BD0223237233681A79E3
:108B640072B1012A24D018460321FFF775FF0023B0
:108B74002372636018491948BDE87040FFF75BBB76
:108B8400D3E90520121AB2F5805F28BF4FF4805252
:108B9400D3E903159208012A014438BF012228446D
:108BA400FFF756FF50B11128DDD101232372D2E71C
:108BB400D3E903021044FFF74DFFF3E7237C002BB6
:108BC400C9D10146BDE87040022000F009B800BFD9
:108BD400082E0020202E00201C2E0020F82D00201E
:108BE40038B5831E012B45D8234C237A002B41D062
:108BF400022B09D1032830D0204B1B680022E260ED
:108C04001A793AB1012A22D0637C7BBBBDE8384093
:108C1400FFF794BFD3E905128D1AB5F5805F94BFB1
:108C2400521902F580529A619142EDD102284FF017
:108C3400000308BF19462372104B18BF0D21186892
:108C4400FFF70AFF0E490F48FFF7F5FADCE71A6948
:108C540001321A615B699A42E7E7E3680133082B42
:108C640001D8E360D0E70023E360DFE7BDE83840E4
:108C740006F03EBC38BD00BF082E0020202E002088
:108C84001C2E0020F82D002000F0FD03012B08D13C
:108C9400044B00225A74421E504250411874FFF78C
:108CA4004DBF7047082E002010B5064C201DFFF75D
:108CB40080FB28B9637C1BB9BDE81040FFF73EBFB9
:108CC40010BD00BF082E00202DE9F34180460D465B
:108CD4000F4801A916461F46FFF748FA0446A8B1F3
:108CE4001C22002109F09FF92D0B0123237101A9F6
:108CF400C4F80080A760E56066610548FFF760FA84
:108D0400FFF7D2FF002002B0BDE8F0810420FAE7AB
:108D1400F82D00202DE9F74381468846104801A923
:108D240017461E46FFF722FA0446B0B11C22002162
:108D340009F079F900250A9BA36001A92571C4F8FB
:108D44000090C4E9037866610548FFF739FAFFF734
:108D5400ABFF284603B0BDE8F0830420FAE700BF68
:108D6400F82D00202DE9F047B0F806904479D2F8A8
:108D740000A09DF8208009FB04F4043C06460AEB9D
:108D84000300A0420F4688BFA4EB030A191DC2F8D2
:108D940000A0B1FBF9F509FB15114DB9A9EB0104CC
:108DA400544528BF5446BAF1000F04D1BDE8F087FA
:108DB4003668013DF1E704317B1970182246B8F199
:108DC400000F0ED001461846AAEB040A09F002F976
:108DD400D145254436684C464FF0000128BF54461F
:108DE400E1E71946F0E7FFF7EDBAF8B54679014631
:108DF400721E0546002393422D6803D30024A64225
:108E040002D8F8BD0133F6E70F682846FFF715FBD3
:108E140001343946F3E72DE9F843068ACD1C0746A9
:108E2400FFF7E7FA043E35440446B5FBF6F5F0B126
:108E34004FF48073EDB28380C680013D07608146A4
:108E44004FF00008A84512D23846FFF7D2FA06467A
:108E540048B163790133637108F10108C9F800006E
:108E640007608146EEE72046FFF7BFFF3446204601
:108E7400BDE8F88301210430FFF785BA10B501215C
:108E840004460430FFF78AFA10F0FF0F04D120469D
:108E9400BDE81040FFF7A9BF10BD1FB50392002223
:108EA400009203AAFFF75EFF05B05DF804FB1FB54F
:108EB40003920122009203AAFFF754FF05B05DF864
:108EC40004FB41DF70470000064B10B500241C7002
:108ED400054B1C60BFF35F8F0449054800F039F867
:108EE400204610BD2C2E0020302E00201826030012
:108EF400242E002007B500230DF107008DF807305C
:108F0400FEF7FCF9F1EE103A23F09F03E1EE103A7C
:108F1400BFF35F8F094B4022C3F884219DF80700FB
:108F2400FEF710FA06F0F4FA20B1FFF7CAFF03B017
:108F34005DF804FB20BF40BF20BFF8E700E100E07C
:108F4400836800225A609A60C3E90422DA601A60D6
:108F540070470B684A684360934208BF002301606E
:108F640008BF43607047436843B102689168526820
:108F74000B449342436004BF0023436070470000E6
:108F840010B50D49A1F59472914201D800200FE06B
:108F94008B1ADB1003EBD3735B1002EBC30452F8A0
:108FA4003330834205D802D204F10802ECE760684A
:108FB40010BD2146E8E700BF6827030008B5FFF7A6
:108FC400DFFF024B002808BF184608BD2D2603000A
:108FD400054B1B68082B01BF044B1868B0FA80F0DE
:108FE400400918BF00207047300100103401001000
:108FF40008B54FF080430022C3F80C21C3F81021B8
:10900400C3F838254FF0805203F54043D2F80414D6
:10901400C3F82015D2F80814C3F82415D2F80C1498
:10902400C3F82815D2F81014C3F82C15D2F8141468
:10903400C3F83015D2F81814C3F83415D2F81C1438
:10904400C3F84015D2F82014C3F84415D2F82414F8
:10905400C3F84815D2F82814C3F84C15D2F82C14C8
:10906400C3F85015D2F83014C3F85415D2F8341498
:10907400C3F86015D2F83814C3F86415D2F83C1458
:10908400C3F86815D2F84014C3F86C15D2F8442418
:10909400C3F87025FFF79CFF10B1384B384A1A60AB
:1090A400FFF796FF18B1374BFB22C3F81825FFF7DB
:1090B4008FFF48B13449354B0A681B6822F00F0210
:1090C40003F00F0313430B60FFF782FF18B1304B1B
:1090D4004FF400721A604FF08043D3F80024D20793
:1090E40044BF6FF00102C3F800242A4AD2F8883042
:1090F40043F47003C2F88830BFF34F8FBFF36F8F10
:109104004FF01023D3F80022002A03DBD3F80432F3
:10911400002B2FDA204B0122C3F80425D3F80024B6
:10912400002AFBD04FF010221221C2F80012D3F80B
:109134000024002AFBD04FF010231222C3F804228B
:10914400154B1A46D3F800140029FBD00021C3F8AC
:109154000415D2F80034002BFBD0BFF34F8F0D4918
:109164000E4BCA6802F4E0621343CB60BFF34F8F27
:1091740000BFFDE70A4B0B4A1A6008BD8C5600403D
:109184004881030000F00040E40E00405802001043
:109194004096024000ED00E000E001400400FA05C2
:1091A4003C2200200090D00338B5074C051E04F182
:1091B400080318BF1C4623682BB11A6822605B6839
:1091C40028469847F7E738BD3C2E002020B9054BC8
:1091D40001225A70FFF7E8BF012802D1014A9070BA
:1091E400F8E77047342E002020B9034B01225A704F
:1091F400FFF7DABF704700BF342E002038B50B4CA0
:10920400237883B90A486360A3602361E36000F0B4
:1092140061F8054606F07CF908B900F067F8012307
:109224002370284638BD8525FBE700BF342E002077
:10923400D191020037B50B4C00230DF107008DF8D6
:109244000730FEF75BF8E368013BE360E56815B9B6
:1092540000F060F8A5709DF80700FEF773F803B0FE
:1092640030BD00BF342E0020012813B509D018B139
:1092740003281CD002B010BD0F4B0122C3F880207C
:10928400F8E70E4C00230DF107008DF80730FEF7C8
:1092940035F823780BB9FFF7B1FFE3689DF80700B1
:1092A4000133E3600123A370FEF74CF8E2E700F01A
:1092B4001DF8FFF7BFFFDDE700E100E0342E0020DA
:1092C40000F18040002382B0036003680193019B96
:1092D40002B07047044A137923B9012110609180C8
:1092E4001846704785207047482E0020084B1A689E
:1092F400D20706D4C02283F800230122C3F88021B8
:109304001A604FF080430122C3F81825704700BF4C
:1093140000E100E0044B01221A604FF08042D2F8D1
:109324001834DB03FBD470470C000040124B1B685D
:1093340010B573B14FF48070FFF7C2FF4FF0804354
:109344000122C3F808230D4B587910B95A711B68D0
:1093540098470B4B1B6873B14FF48270FFF7B0FF53
:109364004FF080430222C3F80823044B01201B68FA
:10937400BDE81040184710BD00010040482E0020F1
:109384000401004000F1804000F5C040002382B099
:10939400036003680193019B02B0704703681F2BAD
:1093A40083BF03F01F03036001484FF0A0407047E0
:1093B4000003005007B5019001A8FFF7EFFF019BE0
:1093C40000EB8300D0F8002722F44032C0F80027D5
:1093D400D0F8003743EA0143C0F8003703B05DF822
:1093E40004FB0000054B4FF0FF32072843F8202010
:1093F40084BF1B1883F85820704700BF502E0020EC
:1094040010B5184C94F86A3053BB04F13003302182
:10941400FF22013911F0FF0103F8012BF9D1C8B281
:10942400FFF7E0FF01310C29F9D1062200210E4893
:1094340008F0F9FD0D4BC02283F806234022C3F83F
:1094440080214FF4BE701A60FFF79CFF084B4FF069
:109454000042C3F80423012384F86A30002010BDBD
:109464000820FCE7502E0020B42E002000E100E08C
:1094740000600040F7B53B4E3318054693F9303091
:10948400002B6CDA8B78C3F34003002B0BBF08244A
:1094940000240C200820844202D1042003B0F0BD33
:1094A40056F82470013743D1701946F8242080F807
:1094B400304013B9331983F858508B785A0717D4AE
:1094C400D80737D501A80195FFF768FF019B00EB8A
:1094D4008300D0F8003723F00203C0F80037224895
:1094E400EA0805F007070123BB40875C3B4383542C
:1094F40088780A7810F0020028D0A40004F180448F
:1095040004F5C0442D02D4F8103523F44F3323F46A
:109514004073C4F810351204D4F8103505F47C55A2
:1095240002F4403215431D43C4F810550020B5E73A
:109534000134B0E701A84A780195FFF72FFF019B9A
:1095440003F5E073920040F82320C8E7083C344454
:1095540094F8605045EA821284F860209EE708205F
:109564009CE700BF502E0020B42E002073B5224C7F
:109574002518064695F93020072A19DD224492F869
:1095840058309B09032B0FD1019001A8FFF706FF68
:10959400019AD0F81035D340DB0707D402213046B6
:1095A400FFF708FF02B070BD012BF7D00321F6E7E7
:1095B400D3B2072BF6D8930003F1804303F5C043DD
:1095C400D3F8100540F00100C3F8100502F1400083
:1095D400800080B2FFF7D6FE0029E3D095F9303041
:1095E40054F82330002BDDD0012303FA02F2034B9D
:1095F400C3F80423D6E700BF502E002000600040CB
:109604002DE9F04F002489B0CDE90244624D4FF4B6
:109614008072012102F1804303F5C04390B21B68BC
:10962400012B06D1D5F804330B4202D0FFF7AAFE72
:109634000C430432B2F5907F4FEA4101EAD1574B13
:109644001B68012B0ED14FF4BE70FFF79BFE4FF049
:10965400A04344F00044D3F810350293504BD3F8A0
:109664001035039314F0FF0F1AD04E4F0025012636
:10967400344210D0AB0003F1804303F5C043D3F868
:109684001005D3F8101557F8253023B1C1F3014163
:10969400C0F3052098470135082D4FEA4606E7D167
:1096A400002C75DA0DF1100800230493C8F8043077
:1096B4004FF0FF33CDE90633DFF8E8A0DFF8E89098
:1096C40000273D4619F9014B631C48D0E4B201233D
:1096D40024F0C00604F0070203FA02F2F00808AB13
:1096E400191811F8083C134239D00AEB0603A409EF
:1096F40093F930305AF823B0BBF1000F08D1032C92
:109704002DD118F800C04CEA020C08F800C001E0A2
:10971400032CF6D001A80196FFF740FE019B11F837
:10972400181C03F5E07C114250F82C00C0F30140F2
:1097340005D0022813D1032C0BD1214604E00328C1
:109744000DD1032C05D102213046FFF733FE01353C
:10975400EDB2BBF1000F02D021463046D8470137A5
:10976400042FAFD1A5B14FF0A0430299D3F810252F
:1097740003F540739142D3F8103502D1039999420D
:1097840006D002920393049A059B0692079395E7E9
:1097940009B0BDE8F08F00BF006000407C6100406C
:1097A40000030050502E0020B02E0020014B1B68F7
:1097B400184700BFBC2E00200E4B984237B50D460B
:1097C40002D0002003B030BD00230DF107008DF856
:1097D4000730FDF793FD084B1C7914B901221D6075
:1097E4001A719DF80700FDF7ADFD002CE9D011209A
:1097F400E8E700BF00200040BC2E002000F18040BC
:1098040000F5E040002382B0036003680193019BEC
:1098140002B07047F0B5534B534C1B6885B0002B16
:109824003DD04FF4827094F82E20FFF7E7FF2AB35F
:1098340094F82F3013BB4D4B1B68002B33D04FF4DF
:109844008070FFF7DBFF94F82D20638B91B28B427D
:109854004ED95B1A21899BB26383CB1A616801EBF1
:109864004301434BC3F82C16C3F830264FF48270DF
:10987400FFF7C4FF3F4B01221A6014E063680293B0
:109884002389ADF80C30E36800218DF8041023BB64
:109894002374236801A89847002384F82F3094F890
:1098A4002E30002BC7D1344B1B685BB14FF488704A
:1098B400FFF7A4FF0023237402238DF8043001A8CA
:1098C400236898472D4B1B6813B34FF48A70FFF736
:1098D40095FF0023237405B0F0BD208B6083636083
:1098E4002081E160002AD4D1214B01221A60D0E703
:1098F400BCD1E368012184F82F103BB100216183BE
:109904001B49C1F82C36C1F83026AFE76383ADE7B5
:1099140066694FF000470125002EDCD0B6FA86F2C6
:1099240027FA02F34632920026EA030602F1804344
:1099340003F5E0431B68002BEED01046FFF75EFFF3
:10994400A2F58C72D30882F00402C2F380028DF86F
:1099540008308DF804508DF80920236801A8984731
:10996400DAE700BF04710040C42E002000710040FB
:1099740000700040047000401071004014710040F9
:1099840038B51D4B044693F82C0098BB1B4A19604C
:109994002178C2F8F0156178C2F8F415E5781874E6
:1099A400012183F82C1083F82D00586183F82F00CF
:1099B40083F82E506FF00043C2F808334FF48270DE
:1099C400FFF71CFF4FF48070FFF718FFA3780C48D3
:1099D4005B01DBB280F807338023C0F88031036079
:1099E4000223C2F804330DB1C2F80413C2F80015FF
:1099F400002038BD0820FCE7C42E00200070004081
:109A040000E100E0224B1A7C30B5002A3ED100F17F
:109A14000C0403EB4402127922B993F82D2001328D
:109A240083F82D2003EB4403CA790C7A1A715C7114
:109A34008D784B782D021B0105F4E06503F03003AB
:109A44002B430D7805F003052B43CD782D0305F446
:109A540080552B430D792D0405F4E0252B434D79D6
:109A640089792D0505F48015090601F080712B43D1
:109A74000B43010101F1804101F5E0410020C1F8EF
:109A84001835C1F81445C1F8102530BD1120FCE784
:109A9400C42E0020264A274B70B505461220C2F872
:109AA40008031C7C022C03D1C2F80403112070BDEE
:109AB400187C01281DD1D86818B10223C2F80433D8
:109AC400F4E7DD60198393F82E3063B91A4A1368FA
:109AD400002BFCD04FF48070FFF790FE144BC3F8BA
:109AE4002C56C3F83016124B0222C3F8042300206C
:109AF400DDE7022093F82E40C2F80403012600207B
:109B04001E745D601981D8603CB1598393F82D307F
:109B1400C2F82C56C2F83036C9E7C2F82C564FF4B6
:109B24008070C2F83016FFF769FE20461660BEE763
:109B340000700040C42E002000710040084A137CCD
:109B4400DBB2012B09D192F82E0018B1054A00208E
:109B540013607047044A136070470820704700BFC1
:109B6400C42E0020007000400470004000234350C5
:109B740082B043580193019B02B070472DE9F0472E
:109B84000D78089E9DF824A004460F469946002DA2
:109B94005ED1D0F82431D2F800803BB14FF49271F9
:109BA400FFF7E4FF012363613B7017E0D0F81C3139
:109BB40053B34FF48E71FFF7D9FFD0F824311BB1A2
:109BC4004FF492712046EBE713689E4212D919F8BC
:109BD4000330C0F81C35136801331360B04535D128
:109BE400D4F8043193B34FF482712046FFF7BEFFDB
:109BF400002504E00123BAF1000F03D0C361284615
:109C0400BDE8F0874361E9E7D0F80831002BE5D0DF
:109C14004FF48471FFF7AAFFD0F82431002BCFD181
:109C240013689E42DAD9D0F8181509F8031013689E
:109C340001331360721E934205D10223C0F800322F
:109C440001232362CAE79E42FAD1C7E70125D6E77A
:109C54004FF49271FFF78AFF4FF48E71FFF786FF7E
:109C64004FF48471FFF782FFBAE700002DE9FF4744
:109C74000C4605461F4620463B4B03934FF4827126
:109C840016469DF83080FFF771FF4FF49271FFF78D
:109C94006DFF4FF48E71FFF769FF4FF48471FFF786
:109CA40065FF0023C4F800326B6385F82E3001236E
:109CB4002362A3606A6B97421DD9B35CC4F81C3558
:109CC4006B6B01336B632B68E3B905F1340A05F15F
:109CD4002E09039B002B1FDC95F82E3053BB00206C
:109CE400039B002B15DC0023C4F800350523C4F8BE
:109CF400003503200DE0B8F1000F01D0E361E2E785
:109D04006361E0E740F28623AB60AB68C4F80433D8
:109D1400002004B0BDE8F087CDE900783346524610
:109D240049462046FFF72AFF0028D5D0039B013B74
:109D34000393CEE7D4F8C434C4F8C434002BCED093
:109D440013F0010F14BF4FF40240032048F2012224
:109D540013F0020F18BF104613F0040F48F2022349
:109D640018BF1846BCE700BFA08601002DE9FF47D5
:109D74000C4605461F462046354B03934FF482712B
:109D84009246FFF7F3FE4FF49271FFF7EFFE4FF4A4
:109D94008E71FFF7EBFE4FF48471FFF7E7FE0023AB
:109DA400012F2E686B6385F82E3008BF02224FF016
:109DB40001030CBFC4F80022C4F8003223622360FC
:109DC400AEB905F1340905F12E08039B002B18DC0C
:109DD40095F82E301BBB0020039B002B0EDC0023C8
:109DE400C4F800350523C4F80035032006E040F22A
:109DF4008623AB60AB68C4F80433002004B0BDE82C
:109E0400F087CDE9007653464A4641462046FFF79F
:109E1400B5FE0028DCD0039B013B0393D5E7D4F8BF
:109E2400C434C4F8C434002BD5D013F0010F14BFCC
:109E34004FF40240032048F2012213F0020F18BF2E
:109E4400104613F0040F48F2022318BF1846C3E764
:109E5400A0860100F0B52C4C2C4894F82C3089B025
:109E640004F134020193A36A0093636A04F12E019E
:109E7400FFF784FE2746E0B994F82EC0266ABCF1A9
:109E8400000F1DD1217B8B1E012B19D8626AA36997
:109E94009A4215D1E26963696262C6F340160329E6
:109EA400A36284F82C6006D1009618492046FFF777
:109EB400DDFE09B0F0BD15492046FFF757FFF8E76E
:109EC400134D0FCD03AC0FC42B682360BCF1000FFE
:109ED40017D00E4AD2F8C434C2F8C43499070CD54A
:109EE40001238DF80830002387F82F307307E0D45E
:109EF400D7E9003102A89847DBE75A07F3D50223D4
:109F0400EFE78DF808C0EEE7F42E002000300040A3
:109F1400002F00202DE9F84F0579404C4FF03C0A02
:109F24000AFB05FA04EB0A079B4697F82D30804696
:109F34000E469146002B6CD139490068FFF73CFC72
:109F4400002868D13268737B87F838301F2A8CBFA9
:109F540002F01F031346B860C7F804B087F82F0057
:109F640087F8300003F5E07188BF2E4F44F80A905B
:109F740098BF4FF0A04740F20C6347F82130716856
:109F84001F291F468CBF01F01F030B4603F5E07326
:109F94008CBFDFF890C04FF0A04C4CF82370D8F879
:109FA4000030C3F80825B268C3F80C15C3F824259B
:109FB400B9F1000F25D01A0B53B2317B002BA8BF87
:109FC40003F16046D2B24FEA5313B8BF02F00F0751
:109FD4004FEA4111B4BF144E06F561464FEA8303BC
:109FE400C9B203F16043B4BFF15586F8001303F519
:109FF400614302F01F02012101FA02F2C3F8802139
:10A004001A603C2303FB0544012384F82D30BDE88A
:10A01400F88F0820FBE71120F9E700BFF42E002099
:10A02400599E02000003005014ED00E00268037919
:10A034000521C2F80015044A3C2101FB0323022236
:10A0440083F82D20704700BFF42E00202DE9F74F30
:10A054002E4E90F80480D0F800E02D4BCEF8083353
:10A064003C2404FB0864C8EB081994F82F308A4692
:10A07400154606EB890903F0FF0B33B1A368CEF84C
:10A084000433112003B0BDE8F08F82F00403C3F35E
:10A09400800384F82F3022628C46BCE80F0004F160
:10A0A4000C070FC7DCF800303B60DAF80430A36219
:10A0B400DAF80C2062629AF80110CEF888159AF842
:10A0C400001001291AD0B9B9C5F340153C2101FB90
:10A0D4000861484681F82C5000957146FFF7C6FD8B
:10A0E4003C2303FB08F806EB080256F80830002B63
:10A0F400C8D182F82F30C5E70125E7E784F82CB0F2
:10A1040071464846FFF732FEEAE700BFF42E00200E
:10A1140086420400F0B587B004460F461546002178
:10A12400142201A81E4607F07EFF9DF830308DF8FA
:10A134000570002B14BF2022002201A9204602969C
:10A144000495FFF783FF07B0F0BDF0B587B0044670
:10A154000F461546002112220DF106001E4607F097
:10A1640062FF0123002201A920468DF804308DF8F6
:10A17400057002960495FFF769FF07B0F0BD000073
:10A184001FB503788DF800308388ADF804308368F8
:10A194008DF80630C3688DF807300369029343696C
:10A1A4000393054A054B684653F8213052F82110B1
:10A1B400984705B05DF804FB302F0020382F0020AD
:10A1C400024B4FF4807043F001031847502B0300F7
:10A1D4001F2886BF00F01F00044A4FF0A04201234D
:10A1E40003FA00F0C2F80805704700BF00030050EE
:10A1F4002DE9F047904606783A4A42F826803A4AD2
:10A2040042F826304B7B07460C46A3B30868DFF8B8
:10A21400E0904FF0A04100F5E07340F20C6241F889
:10A224002320636803F5E073002541F82320FFF73A
:10A23400CFFF6068FFF7CCFF236803F5E07340F2BB
:10A244000D6241F82320636803F5E0734FF0010ABF
:10A2540041F82320FFF7B4FF63681F2B8ABF4A46E7
:10A264004FF0A04203F01F03D2F8102522FA03F3A3
:10A27400DB070DD515BBB8F1000F33461B4A214649
:10A2840007F1040008BF0022BDE8F047FFF742BE13
:10A2940023681F2B86BF03F01F034A464FF0A042DA
:10A2A4000AFA03F3C2F80C35FFF78AFF0135206878
:10A2B400FFF78EFFFFF784FF092DCDD163681F2BB5
:10A2C40086BF03F01F030A494FF0A041012202FA9E
:10A2D40003F3C1F80C35FFF773FF6068FFF778FFED
:10A2E400C9E700BF382F0020302F002085A10200CD
:10A2F400000300500023435082B043580193019B54
:10A3040002B0704738B51D4602230B710B684A71C1
:10A3140004467BB112F0040F0CBF82219221100776
:10A3240048BF41F02001D306236848BF21F08001D3
:10A33400C3F8001320684FF48271FFF7DBFF206835
:10A3440012F0800F05BF012343514019002038BD8E
:10A354002DE9F04F07795B4C4FEAC70804EB08037B
:10A3640085B01B7906460D46002B40F0A88044F8C2
:10A374003720DFF858E101F1FF3C05F1030B694692
:10A384004FF001091CF8012FFF2A00F0948022F0FD
:10A39400800310060B6040F181801F2B87BF02F001
:10A3A4001F00F24618464FF0A04A09FA00F0CAF816
:10A3B40008051F2B8ABF02F01F034FF0A04272460C
:10A3C40003F5E073032042F82300DC4501F10401A6
:10A3D400D8D13068009BC0F86035019BC0F8643563
:10A3E400029BC0F86835039BC0F86C350123C0F8A4
:10A3F4000035AA792B896979C0F80C15C0F80425B1
:10A40400C0F808356B89C0F810350023C0F8003255
:10A414004FF48E71C0F80033FFF76CFF4FF488716E
:10A424003068FFF767FF4FF48A713068FFF762FF07
:10A434004FF482713068FFF75DFF54F8373033B35F
:10A4440032682979120B53B2002BA8BF03F1604084
:10A45400D2B24FEA5313B8BF02F00F054FEA4111CD
:10A46400B4BF194800F561404FEA8303C9B203F150
:10A474006043B4BF415580F8001303F5614302F013
:10A484001F02012101FA02F2C3F880211A60444438
:10A4940001232371002005B0BDE8F08F1F2B87BF77
:10A4A40002F01F00F24618464FF0A04A09FA00F0E5
:10A4B400CAF80C057DE74FF0FF330B6085E70820F1
:10A4C400E9E700BF402F002014ED00E00003005036
:10A4D400F0B40D461C461A490379D5F800C0AF887C
:10A4E400AE68ED6801EBC3010368C3F820C5C3F887
:10A4F4002475C3F82865C3F82C55C3F840C5C3F8C0
:10A504004475C3F84865C3F84C5502F0010505EBE2
:10A514005202C3F81425E20710D414F0020203D047
:10A52400002D14BF08220422002DC3F80022E2B239
:10A5340014BF0C230823F0BCFFF7E4BE1022F3E79A
:10A54400402F00202148D0F8103110B55BB14FF4F2
:10A554008871FFF7CFFE1E4B5A79510703D51B684C
:10A564000BB1012098471948D0F814315BB14FF46E
:10A574008A71FFF7BFFE164B5A79120703D51B6881
:10A584000BB1022098471148D0F81C315BB14FF44D
:10A594008E71FFF7AFFE0E4B587910F0100002D108
:10A5A4001B6803B198470948D0F8043163B14FF4EC
:10A5B4008271FFF79FFE064B01221A711B681BB1C3
:10A5C4000320BDE81040184710BD00BF00C0014083
:10A5D400402F0020032813D8012A0BD1012908D1C8
:10A5E40000F10E02D2B200EB40000C4B1A540020D2
:10A5F400704700220129F6D04BB24BB1022901D099
:10A6040007207047054B00EB400018444270EEE70A
:10A61400024900EB400008448270E8E7482F00201C
:10A6240008B5012202210020FFF7D4FF08B1072852
:10A6340010D1072202210120FFF7CCFF08B107281F
:10A6440008D100210A220846FFF7C4FF10B10728E9
:10A6540008BF002008BD00000388102B10B502D0ED
:10A66400112B1ED010BD1A4C2168B1B90122084625
:10A67400FFF7B0FF08B1072824D1072202210120E7
:10A68400FFF7A8FF08B107281CD1042202210020EB
:10A69400FFF7A0FF08B1072814D123680133236012
:10A6A400E0E70B4A1368013B1360002BDAD1FFF794
:10A6B400B7FF0028D6D0074B1B68002BD2D0BDE8CB
:10A6C40010401847034B1B68002BE6D09847E4E77B
:10A6D400582F0020542F002033DF704776DF704757
:10A6E4007ADF70477CDF70478FDF704713B5002334
:10A6F400ADF806300378044653BB05214068FFF7E4
:10A70400C9F908B1FCF70CFB6268911E083231F8F4
:10A71400023FBDF8060003449BB28A42ADF80630FE
:10A72400F5D10C4C0522B3FBF2F32288ADF80630C8
:10A734000532934203DC2288053A934205DA00226B
:10A744000DF10601044800F005FCBDF80630238035
:10A7540002B010BD622F0020FC310020FCF7E0BAEB
:10A76400094A08B5138801331380FFF7E7F9074B4B
:10A7740007480849C01AC008000440F00300BDE8B7
:10A784000840FCF74FB900BF5E2F0020C82103002A
:10A7940008220300632B03000388212B13B504460E
:10A7A4004DD005D8102B21D0112B0CD002B010BDE8
:10A7B400502B3FD0562B01D03B2BF7D11321A0882F
:10A7C400FFF78CFF31E0224B22482349C01AC0080E
:10A7D400000440F00300FCF725F92048FCF77EFD57
:10A7E40000F0DCFC1E4B00221A70DFE7184B1948FE
:10A7F4001C49C01AC008000440F00300FCF712F919
:10A80400174B01224FF080701A7000F0A7FC00F083
:10A81400BFFC4FF4804100221048FCF719FD124B95
:10A82400A1881248198002F089FC0028BED0FCF7E8
:10A8340077FABBE701460C4800F006FAB6E70023B6
:10A8440001A98088ADF80430FFF74EFFEDE700BFA3
:10A85400C8210300082203007C2B0300BC31002024
:10A864005C2F00208A2B0300FC31002018320020CA
:10A8740008B503784BB9054B3B211888FFF72EFF29
:10A8840018B1BDE80840FCF74BBA08BDFC31002004
:10A8940008B588B103281AD10D4B0E480E49C01AC9
:10A8A400C008000440F00300FCF7BCF84FF40000BB
:10A8B400BDE8084000F052BC4FF4800000F04EFCAC
:10A8C400FFF70AFF18B1BDE80840FCF729BA08BD34
:10A8D400C821030008220300012C030008B503214A
:10A8E400044801F0F2F818B1BDE80840FCF718BAC2
:10A8F40008BD00BF642F002010B5044603F0CAFE53
:10A90400204603F0EDFC23780C2B03D1BDE8104066
:10A91400FFF7E4BF10BDFCF703BA000037B500F041
:10A9240043FC1C4C1C491D4D641AE4082A7E240473
:10A9340044F003044AB120461949FCF777F84FF470
:10A94400400000F00BFC03B030BD164B1B781BB16C
:10A954004FF0807000F002FC2D8913492046134CFF
:10A964002A46FCF763F8228802F108018D4202DCD2
:10A97400083A9542E7DA6FEA45436FEA5343012206
:10A984000DF106010A48ADF8063000F0E3FA25801F
:10A99400D9E700BF08220300C82103009C3300202C
:10A9A400A62B03005C2F0020CA2B0300602F00207D
:10A9B400FC3100201FB5114A10685168127A01ABAE
:10A9C40003C30F491A700F4805238DF80630FEF7AC
:10A9D400D7FF08B1FCF7A4F901A90020FFF712F88A
:10A9E40008B1FCF79DF905210748FFF753F808B1B2
:10A9F400FCF796F905B05DF804FB00BF5A2B030081
:10AA0400F1A60200952B0300DC31002030B54FF491
:10AA14000041ADB00020FBF741FE08B1FCF780F91E
:10AA2400FBF772FD00F0D0FB00F0FCFA00F03EFBF7
:10AA3400FCF7CCFB08B1FCF773F96C4A6C480121B4
:10AA4400FCF7F4FB08B1FCF76BF9FEF73DFA08B12B
:10AA5400FCF766F9FFF7AEFF04F0DCFC08B1FCF785
:10AA64005FF9002301A90120019304F09BFD08B1C3
:10AA7400FCF756F901A804F045FE08B1FCF750F9BB
:10AA840011235C488DF8003007F022FB594982B24B
:10AA94006846FFF727FE08B1FCF742F900210822B7
:10AAA40001A807F0C0FA54494FF0C87301A8CDE9D2
:10AAB4000113FFF715FE08B1FCF732F900214F48E6
:10AAC40002F034FA08B1FCF72BF94D4B4D480193D1
:10AAD40001A902F021FB08B1FCF722F94A4800F071
:10AAE400E3F8AC22002101A807F09DFA02238DF8B7
:10AAF40004304FF4C063454AADF806300123ADF885
:10AB0400143006928DF880304FF4967244F25063FC
:10AB1400CDE9232301A93E4B3E482A9300F05EFF72
:10AB240008B1FCF7FDF801213A4800F054FF1C225B
:10AB3400002101A807F077FA00234FF42032CDE971
:10AB44000132ADF812304FF470228DF81430324BCC
:10AB5400039206930322314B8DF8102001A807932A
:10AB640001F0F8F908B1FCF7DBF803F0B3F808B129
:10AB7400FCF7D6F80522002101A807F054FA019B3E
:10AB840003F07C42264B134301939DF8083023F0D5
:10AB9400030343F0030301A88DF8083003F034F9EC
:10ABA40008B1FCF7BDF81F4803F016F908B1FCF72B
:10ABB400B7F81D4B1D481E491E4DC01AC00800049D
:10ABC40040F00300FBF72EFF4FF4967445F00105A7
:10ABD4004FF47A40A847013CFAD1FFF77FFEFBF718
:10ABE400B7FD0028FBD1FEF785F9F8E765A7020059
:10ABF400DC2B0300E02B03005000A000E831002010
:10AC040061A7020018320020FC31002040220020FD
:10AC140095A80200642F002075A802001BA9020059
:10AC240031071003FDA80200C82103000822030015
:10AC3400E92B0300A02B0300A8DF7047AADF7047AD
:10AC4400AEDF704762DF7047CA88838A9A4270B564
:10AC540021D1114B11488D7C114C1249C01AC008E6
:10AC640000042A4640F00300FBF7E0FE237805F0D9
:10AC74008006B34202D0304600F079FAEA07267023
:10AC840009D52B0603D50020207000F070FABDE82A
:10AC9400704000F031BA70BDC821030008220300DF
:10ACA40025320020252C03002DE9F0434FF6FF73D5
:10ACB4000380A24B9BB006AA03F110060446174674
:10ACC400B14618685968154603C50833B3422A4685
:10ACD400F7D14FF20D030DF112013846ADF81030E3
:10ACE400FFF7B0FF08B1FCF71BF822464FF6FF73DD
:10ACF40022F8023B04A90120FFF79EFF08B1FCF7EC
:10AD04000FF80AAA8D4B904618685968154603C572
:10AD140008334B452A46F7D14DF2D1130DF11601F4
:10AD24004046ADF81430FFF78DFF08B1FBF7F8FF8C
:10AD34001C22002113A807F076F99DF84C3002AECE
:10AD440023F00A0343F002030322002130468DF866
:10AD54004C3007F068F941F21113ADF808309DF852
:10AD64000A301896012767F342038DF80A309DF8DC
:10AD74004C3003AD43F010030322002128468DF824
:10AD84004C3007F050F91123ADF80C309DF80E301B
:10AD9400142267F3420300210EA88DF80E3007F049
:10ADA40042F905ABCDE90E350223ADF84430ADF8D8
:10ADB4004030B9F80030ADF8043001AB12930EAA5C
:10ADC400231D13A96088FFF739FF08B1FBF7A8FF1B
:10ADD4005A4B4746186859683A4603C208334B45EC
:10ADE4001746F7D14BF6BA230DF116014046ADF8DC
:10ADF4001430FFF727FF08B1FBF792FF1C22002154
:10AE040013A807F010F99DF84C3023F00A0343F01F
:10AE140002030322002130468DF84C3007F003F979
:10AE240041F21113ADF808309DF80A301896012745
:10AE340067F342038DF80A309DF84C30032243F047
:10AE44001003002128468DF84C3007F0ECF811234C
:10AE5400ADF80C309DF80E30142267F34203002144
:10AE64000EA88DF80E3007F0DEF80223ADF844305A
:10AE7400ADF84030B9F80030ADF8043001AB05AF9F
:10AE840012930EAA04F10C0313A96088CDE90E7580
:10AE9400FFF7D4FE08B1FBF743FF284BC4461868FC
:10AEA4005968624603C208334B459446F7D14BF6C2
:10AEB400EF630DF116014046ADF81430FFF7C2FE02
:10AEC40008B1FBF72DFF1C22002113A807F0ABF8F3
:10AED4009DF84C3023F00A0343F00A0303220021B7
:10AEE40028468DF84C3007F09EF841F21113ADF866
:10AEF4000C309DF80E304FF0010868F34203142221
:10AF040000210EA88DF80E3007F08DF80C4B6088E8
:10AF14001B788DF808300EAA04F1140313A9CDE9A7
:10AF24000E75ADF84480ADF840801296FFF786FEAA
:10AF340008B1FBF7F5FE1BB0BDE8F083132C03004A
:10AF440024320020024A137843F008031370704738
:10AF54002432002070B5154602884FF6FF739A42DA
:10AF640086B004460E4618D0CDB9022310222946D5
:10AF740002A8ADF8063007F056F8A389ADF80830FA
:10AF840001238DF80A30ADF80C500DF1060302A927
:10AF94002088CDE90436FFF753FE06B070BD012DBD
:10AFA400FBD102231022002102A8ADF8063007F0DD
:10AFB4003AF8A388ADF8083000238DF80A50ADF8AC
:10AFC4000C30E2E71F2886BF00F01F00044B4FF04F
:10AFD400A04300F5E070032243F82020704700BF2F
:10AFE400000300501F2886BF00F01F00044A4FF0E2
:10AFF400A042012303FA00F0C2F80805704700BF1D
:10B00400000300501F2886BF00F01F00044A4FF0C1
:10B01400A042012303FA00F0C2F80C05704700BFF8
:10B024000003005007B51620FFF7CCFF1720FFF7E9
:10B03400C9FF1820FFF7C6FF1C20FFF7C3FF2D2010
:10B04400FFF7D0FF2D20FFF7BDFF2C20FFF7DAFF1D
:10B054002C20FFF7B7FF4FF0A0430C22C3F878274A
:10B06400FEF7CEF908B1FBF75BFE40F20233ADF810
:10B0740004300D4A022301A92E208DF80630FEF774
:10B08400F9F908B1FBF74CFE01212E20FEF76EFA08
:10B094004FF0A043D3F810355B0001D4FFF752FF03
:10B0A40003B05DF804FB00BF21A902001FB50D4ADF
:10B0B4001068516801AB03C390681860002201A9AD
:10B0C4000948FFF745F948B10848094B0949C01A2E
:10B0D400C008000440F00300FBF7A4FC05B05DF8D1
:10B0E40004FB00BF322C030044220020082203008A
:10B0F400C82103003E2C030008B54FF0A043D3F849
:10B10400102512F0804F4FF0E072C3F8082504D0E8
:10B114004FF0A072C3F80C2508BD4FF08072C3F83D
:10B124000C2501231A4608490848FFF7D1F9084BB2
:10B1340008480949C01AC008000440F00300BDE8EB
:10B144000840FBF76FBC00BF602C030044220020C2
:10B15400C821030008220300502C03004FF0A04331
:10B164004FF0E072C3F80825C3F80C05704710B11E
:10B174002C20FFF737BF2C20FFF744BF00B589B060
:10B1840010B1694605F0AFFF09B05DF804FB00009B
:10B19400014B186806F0E8BB5C220020014B1868DC
:10B1A40006F074BC5C22002010B5054C05492068EB
:10B1B40006F0E1FA20680021BDE8104006F090BCDA
:10B1C4005C2200209C3300202DE9F043514E524D67
:10B1D4003368524C4FF4C8705222A3F85E0183F8CE
:10B1E4005C2185B006F0B2FC4D4B2060ED1AED08F1
:10B1F4002D04002840F08780306806F037F90246B5
:10B20400206020B1474945F00100FBF70FFC002303
:10B214000DF10A02F8214448ADF80A3006F01AFE8E
:10B224002060306806F0D0F90246206020B13F4922
:10B2340045F00100FBF7FAFB0DF1090203A93068A0
:10B2440006F081FC226822B1394945F00100FBF780
:10B25400EDFB384A38493068DFF8F480DFF8F490C1
:10B2640006F086FA2060FFF789FFD8F8000005F0A1
:10B2740021FF2060FFF782FFD8F80010DFF8D880A4
:10B2840008684B790A7901908979009145F00307A0
:10B294002A493846FBF7E9FB4A464146306805F03F
:10B2A40012FF206028BB99F8003098F80020244948
:10B2B4003846FBF7C4FB0121306805F017FF23680B
:10B2C400A3B901214FF48042306806F01EF801460C
:10B2D400206058B94FF49012306806F016F82060D8
:10B2E40020B91849306805F01DFF206005B0BDE89D
:10B2F400F08345F001001449FBF794FB94F9000036
:10B30400FFF73CFFD7E7114945F00100FBF78AFB43
:10B31400ECE700BF5C2200200822030094330020E5
:10B32400C8210300702C0300283200207F2C030066
:10B33400902C030098330020B83300209E2C030087
:10B34400CC2C0300400D0300EE2C03000A2D030057
:10B354006022002091330020903300200369C168EB
:10B364008B429DBF8268D21802F1FF3203F1FF3392
:10B3740094BF501A581A70472DE9F041D0E902746D
:10B3840005463E1B4068964220448846144404D92E
:10B3940006F020FEEC60BDE8F0813246E41B06F0C6
:10B3A40019FE224608EB06016868F1E72DE9F84327
:10B3B400C5680646894617464FF000083469B368E5
:10B3C4007068A54228BFE418013C621B5C1BBC42A8
:10B3D40028BF3C46944228BF144649462844224686
:10B3E40006F0F8FDB3682544AB4208BF00253F1BB7
:10B3F400A044A144F560E1D14046BDE8F8830000D3
:10B4040010B5114C114AA2610223C4E90433104B54
:10B41400E361A2644FF400730E4A2362E2640023E2
:10B4240010220D49A362E01D6362E362A3656365B4
:10B43400E365226506F02AFE0849204606F026FE4A
:10B444002023A37110BD00BFBC3300201D2D0300B9
:10B454004434002034340020262D03002A2D030018
:10B46400F8B5184C182300FB033503FB00402544B2
:10B47400C46A012C0F46164611D024B1022C1BD0ED
:10B4840000242046F8BD2846FFF768FFB042F8D3F1
:10B49400324639462846FFF76FFF3446F1E728461F
:10B4A400FFF75CFF8642344628BF044622463946ED
:10B4B4002846FFF761FFE4E72846BDE8F840FFF7B8
:10B4C40075BF00BFBC330020FFF79ABF6DDF704724
:10B4D40079DF70477DDF704764DF70472DE9F74FF0
:10B4E4000C9CBDF834B02788002580468A469146D6
:10B4F4002E46B8F80020B2420BDC35B12288013A5E
:10B50400D21B92B2FF2A39D8DA55002003B0BDE825
:10B51400F08FD8F8042052F82600019000220DF193
:10B52400030101A8FFF7D8FF0028EFD19DF80320FD
:10B534004A4521D12288002D14BF0020022002EBAD
:10B5440009010144594519DC3DB9013292B2228006
:10B5540003F802A022880132228022880DF103011F
:10B564001A4401A8FFF7B8FF0028CFD121889DF81D
:10B5740003200A44228001250136BAE70C20C5E7DE
:10B584002DE9F341089CBDF824501746CDE9004548
:10B5940002220646FFF7A2FF48B910223946304678
:10B5A400CDE9084502B0BDE8F041FFF797BF02B00E
:10B5B400BDE8F0812DE9F04F00231688138090F840
:10B5C4002D3085B007460D46144653B3082E01D8D6
:10B5D4000C2028E102A8FFF779FF002840F023811E
:10B5E40013880822CA54238801339BB21B22238068
:10B5F400CA542088013080B2208006220DF109014E
:10B60400284406F0E7FC23889DF8082006339BB203
:10B6140012F0FE0218BF01222380EA54238801336A
:10B624002380BB78FBB123880433B342D0D802A86B
:10B63400FFF74EFF002840F0F68023880322EA54E7
:10B64400238801339BB219222380EA542388BDF84E
:10B65400082001339BB2E9182380EA54120A4A7085
:10B66400238802332380FA789AB12388D91CB14203
:10B67400AED80221E954238801339BB201212380EF
:10B68400E95423880B449BB22380EA5423880B4457
:10B6940023807A68AAB12388D91CB14298D80221A0
:10B6A40092F90020E954238801339BB20A212380B4
:10B6B400E954238801339BB22380EA54238801335D
:10B6C40023803B89002B40F0A2803B8A5BB1CDE90B
:10B6D40000462B460722032107F11000FFF750FF15
:10B6E400002840F0A0803B8B5BB1CDE900462B469F
:10B6F4001522142107F11800FFF742FF002840F03B
:10B7040092803A6A002A40F09180D7F82480B8F1F8
:10B71400000F30D0B8F804302188981C8A1C0244E9
:10B72400B2423FF655AFFE283FF652AF03336B5497
:10B73400238801339BB2FF222380EA5423880133F8
:10B744009BB22380B8F80020EA54E918120A4A7020
:10B754002088023080B22080B8F804205AB1D8F88A
:10B76400081000296CD0284406F034FC2388B8F86B
:10B7740004201344238097F82C30002B40F09B8046
:10B78400387800284FD03B88012B59D0228802F109
:10B79400020CB4453FF61CAF012805D17B78023377
:10B7A40013449E42FFF414AF023EB61AB6B202A985
:10B7B40005EB0C00ADF80860FFF78CFE98BB3978F8
:10B7C400BDF80820022900F0BB807B78934202D3A5
:10B7D400B24240F2B380012940F0B4809BB29E4251
:10B7E400C0F0B080ADF808300821BDF80830FE2B59
:10B7F4003FF6EEAE22880133AB542288013292B276
:10B804002280A95422881344238000200BE0CDE930
:10B8140000462B460622022107F10800FFF7B0FE7E
:10B8240000283FF452AF05B0BDE8F08FB4F800C073
:10B834000CF10603B3423FF6CBAE1188052901D8BB
:10B844000720F0E76FF4486E01EB0E039BB24FF252
:10B854007D3E7345F4D95388052BF1D96FF44860C4
:10B86400181880B27045EBD94FF6FF70814203D0AF
:10B87400834201D09942E3D8052305F80C3023888C
:10B8840001339BB212212380E954238801339BB2F4
:10B8940023801188E954E818090A41702388023387
:10B8A4009BB223805288EA54E918120A4A7023880A
:10B8B4000233238029E7BB6A002BC1D04FF0000973
:10B8C4004FF00C0A4FF0160B97F82C305FFA89F200
:10B8D40093427FF655AFB96A0AFB02F201EB020804
:10B8E400B8F80430981CFE283FF672AE2088033363
:10B8F4002B54238801339BB2238005F803B023889B
:10B9040001339BB223808A5AEA54E918120A4A7016
:10B914002088023080B22080B8F804205AB1D8F8C8
:10B92400081000298CD0284406F054FB2388B8F86A
:10B9340004201344238009F10109C5E7092154E7D0
:10B94400B242FBD9ADF808604EE770B5C0B14AB158
:10B9540016880024B44203D305196D789D4208D09B
:10B96400A14201D800200BE0055D01352C44A4B2AE
:10B97400F0E7A142F6D9A31C1380005D013880B220
:10B9840070BD13B50023ADF8063013460DF1060261
:10B994000446FFF7DAFF10B1BDF80600204402B0F8
:10B9A40010BD72DF704773DF704738B5012204465B
:10B9B4000D46B0F83812D0F83402FFF7E2FF00B1B8
:10B9C400057004F13C0204F50D7104F15400BDE866
:10B9D4003840FFF7E6BF80F830107047F8B50446EA
:10B9E4000F4600296DD000286BD091F87A301BB136
:10B9F40091F89830002B66D107F178060FCE4FF0FE
:10BA0400000C251D84F802C00FC50FCE0FC596E8A3
:10BA1400070085E8070084F830C0D7F8A4306363D2
:10BA2400D7F8A830A3634FF6FF7504F50D73C4F877
:10BA34004432A4F848520722614604F24A2006F030
:10BA4400F2FA23780BB984F8545094F82430002B7C
:10BA540014BFEE231F2304F15501C4F83412A4F8D3
:10BA6400383204F50E723846FFF7A4FD40BB94F853
:10BA74002430002B14BFEE231F2304F24311C4F817
:10BA84003C12A4F8403204F5107207F13C00FFF7B1
:10BA940091FDA8B9A369A4F848304FF4807201233A
:10BAA400A4F85020626920646264014684F83C3042
:10BAB40004F13C0204F15400FFF773FF00B9237052
:10BAC400F8BD0E20FCE70720FAE7F8B5077804462E
