:020000022000DC
:1060000000000420756302005D6302005F6302000C
:106010006163020063630200656302000000000028
:1060200000000000000000000000000067630200A4
:1060300069630200000000006B6302006D630200F0
:10604000319302006F630200959502006F630200B6
:106050006F6302006F630200E9930200B9950200CA
:106060006F6302006F6302006F6302006F630200E0
:106070006F6302006F6302006F6302006F630200D0
:106080006F630200816E02006F6302006F630200A3
:106090001D6F02006F6302005DE402006F63020087
:1060A0006F6302006F6302006F6302006F630200A0
:1060B0006F6302006F630200000000000000000038
:1060C0006F6302006F6302006F6302006F63020080
:1060D0006F6302006F6302006F6302006F63020070
:1060E0006F6302006F6302006F6302000000000034
:1060F000000000006F630200000000006F630200F8
:10610000000000000000000000000000000000008F
:10611000000000000000000000000000000000007F
:10612000000000000000000000000000000000006F
:10613000000000000000000000000000000000005F
:10614000000000000000000000000000000000004F
:10615000000000000000000000000000000000003F
:10616000000000000000000000000000000000002F
:10617000000000000000000000000000000000001F
:10618000000000000000000000000000000000000F
:1061900000000000000000000000000000000000FF
:1061A00000000000000000000000000000000000EF
:1061B00000000000000000000000000000000000DF
:1061C00000000000000000000000000000000000CF
:1061D00000000000000000000000000000000000BF
:1061E00000000000000000000000000000000000AF
:1061F000000000000000000000000000000000009F
:10620000354936480A1A02D0072291438D4634494F
:1062100034480A1A06D00722914381F309880222E2
:1062200082F3148830483149314A00F044F831484B
:106230003149324A00F03FF831483249324A00F0E1
:106240003AF832483249334A00F035F83248334997
:10625000334A00F030F833483349344A00F02BF821
:1062600033483449344A00F026F83448344900228F
:1062700000F02CF833483449002200F027F8334866
:106280003349091A082902DB002202604160314AC1
:1062900090471F481F49884205D00268043003B464
:1062A000904703BCF7E700208646EC46002000211B
:1062B000294A9047FEE7884207D0521A05D0037852
:1062C00001300B700131013AF9D17047884202D098
:1062D00002700130FAE770470000042000E003205C
:1062E0000000042000000420800D03003422002060
:1062F00070220020D4630200D46302007CE9020013
:10630000800D03003422002034220020ECEA020039
:10631000ECEA0200ECEA0200ECEA0200ECEA02001D
:10632000ECEA0200ECEA0200ECEA0200800D030055
:10633000BC0D03007022002070220020702200207B
:106340007435002074350020743500207435002029
:10635000745500209D630200899C0200FEE7FEE761
:10636000FEE7FEE7FEE7FEE7FEE7FEE7FEE7FEE705
:10637000704700BF1048804710484FF0070188431E
:1063800085460F4880470F48016841F4700101605D
:10639000BFF34F8FBFF36F8FFFF732BF0A480B4930
:1063A0000B4A884207D0521A05D0037801300B708F
:1063B0000131013AF9D170477163020000000420F5
:1063C000F58F020088ED00E0D8EA020020220020CC
:0463D0003422002053
:1063D4007047000007B5044B0093044A402300F0C3
:1063E40032F803B05DF804FBF5630200712200206B
:1063F4002DE9F84389461446B2B10F4B0F4E0325DD
:10640400002743F00108224609EB0701002003F0AE
:10641400B1FF0744241A48B933782BB14FF47A40BA
:10642400C047013D02D13570BDE8F88301233370C4
:10643400002CE8D1F8E700BFF0EA02007022002047
:10644400704703F0CBBFF0B595B01C46164608461E
:106454000D4602F00FFD1A9B0D93CDE9086400244C
:106464002346082205A928460A948DF82C400C944A
:1064740002F01DFD079B0293069B03939DF81430C5
:106484008DF8114003F00302012A1DD1BDF8144018
:10649400059EC3F3C203C4F383148DF81030A20025
:1064A40008230EA9284602F002FDC6F3952608AB80
:1064B4000093224602AB0EA9304600F077FB284633
:1064C40002F0DCFC15B0F0BD022AF8D1BDF816408C
:1064D400C3F3C203A4098DF810300827082C2646FC
:1064E40028BF08263B4632460EA9284602F0DFFCA8
:1064F400A41B08AB02AA31460EA8374400F0BAFB2D
:10650400002CEBD1DBE7000008B5FFF79AFF04216C
:10651400034800F0B9FA034B01225A7108BD00BFC9
:10652400C8EA020034220020037813F0040216D0D3
:1065340003F00303012B03D0022B09D00120704781
:106544000A6800880232C0F3831002440A60F5E747
:106554000B684288023303EB92130B60EEE710469C
:10656400704700002DE9F04F87B000230446851CD6
:106574000DF107000F4690468DF8073000F0BEFE7F
:10658400454806683E60D0E90132134401339B1B41
:10659400824600F21C4600F5836900F21447AB42C0
:1065A4001BD30022B8F1000F70D0052363F3070258
:1065B40064F38912DAF80010DAF808309DF807005D
:1065C4000B4003330D444AF82320CAF8005000F06E
:1065D400B9FE012007B0BDE8F08F0121304601F07B
:1065E400D2FE484601F0E8FE384601F0E5FEDAF84E
:1065F4000400DAF808B0029000EA0B0003300AEB5A
:10660400800002A9FFF790FF029B50BB0BEA030234
:106614000AEB820203F1020CD2680392013303EA0B
:106624000B0B0AEB8B0B02F00302012ACDF808C016
:10663400DBF80C1022D0022A16D08346384601F02B
:10664400BEFE10B1029BCAF804305946304601F030
:106654009AFEDAE901231344DAF8002001339B1A85
:106664009DE70BEA0300C9E7BDF80E309B0903332D
:106674004FEA114B0CEB93030293DFE7BDF80C30A8
:10668400C3F383134FEA114B6344F5E7062363F323
:10669400070264F39F528DE7842300200B4B0C48C0
:1066A400FF2210B59A600022C3F81824C3E900221F
:1066B400C3F8142483F8202402F095FB044610B98F
:1066C400044802F03DFC204610BD00BF8423002096
:1066D400FCE9020014EB020030B50A4C71B10A4A1D
:1066E4000A49121BD20800239A4201D1002030BD6E
:1066F40031F82350854202D00133F5E7034654F8BC
:106704003300F4E710EA0200C8EA02003422002051
:10671400094B013903EBC000032909D8DFE801F074
:106724000A020406042070470079704740797047D4
:10673400002070470220704710EA0200034BD3E99F
:106744000030C31A58425841704700BF84230020C8
:106754002DE9F04387B0FFF7F1FF0646002840F02B
:10676400FB807E4DC5F81804BFF34F8F6868AC6892
:1067740002902040033005EB800002A9FFF7D4FE0D
:10678400029B18B1D5F81824002A5FD004EA03024A
:10679400991C013305EB8202234005EB8303D26885
:1067A400DB68049302F00303022B0392029162D18B
:1067B400BDF80E306A484FEA9318B8F1500FC1463D
:1067C40028BF4FF0500969F38F1309F10801ADF8A0
:1067D4000E3002F020FB0746002800F0A88002F0EB
:1067E40049FB03A900230822384602F056FB02990C
:1067F40024EA01060136B600B14535D95FFA89F9B4
:106804007EB3F6B2A9EB0609214003315FFA89F49D
:10681400B146544E05EB810108234A46384602F03E
:106824003CFB36B109F1080322463146384602F0F2
:1068340034FB029B08F1030803EB98030293D5F899
:106844001834002B4BD1D5F810445BE02A689A42E7
:1068540004D86A60304607B0BDE8F08304EA030058
:1068640088E740493446D7E72140033108234A46A4
:1068740005EB8101DAE7012B59D1BDF80C3038481A
:10688400C3F38311062928BF062161F3891302315A
:106894008900ADF80C3002F0BEFA0746002846D055
:1068A40002F0E8FA0023082203A9384602F0F5FAB8
:1068B4000026BDF80C20C2F38312B300964203F104
:1068C4000803BCD202994A1C21400331029205EB11
:1068D40081010422384602F0E0FA0136E9E738463D
:1068E40002F0CCFAFFF72AFF80F00100C6B2B1E74C
:1068F400E3685B7923B1236839461B6820469847CF
:10690400E3681C68002CF3D1384602F0B7FA0DF1A5
:1069140007008DF8074000F0F1FCD5F818340BB9E6
:10692400029B6B609DF8070000F00CFDDAE7D5F8D8
:10693400104454B90C4B0D480D49C01AC00800044A
:1069440040F0020000F06EF8CCE7236820469B6814
:106954009847E3681C68ECE700267BE78423002063
:10696400FCE902009023002010EA020040EA020041
:1069740020EB02002DE9F74F284C80460F46924643
:1069840001A9012218469B46D4F80890FFF7EAFDB6
:1069940080B3019D0026A91C5E4506EB010233D19C
:1069A40000211F4801F0AEFC80F310006A1C02EACB
:1069B400090204EB8202000405EA0903033340EAF6
:1069C4001840D06014F8232068F3C50204F823208B
:1069D40034F8232066F3891224F8232054F8232062
:1069E40067F39F2244F8232002F0F80242F00102E8
:1069F40004F8232094F820341BB1FFF7A9FE0028E3
:106A0400FBD103B0BDE8F08F09EA020204EB820275
:106A14005AF82630D3600136BEE700BF8423002035
:106A2400A027002000231A46FFF7A4BF07B50123BF
:106A3400019201AAFFF79EFF03B05DF804FB07B5BE
:106A4400CDE9002302236A46FFF794FF03B05DF803
:106A540004FB1FB5CDE90123069B039301AA03237D
:106A6400FFF788FF05B05DF804FB1FB5CDE90023EF
:106A7400069B0293079B03936A460423FFF77AFF5E
:106A840005B05DF804FB000030B50F49D1F81024BF
:106A9400002314463CB9C468237152B9C1F81004E8
:106AA4002260184630BDE46825799D4206D02468EA
:106AB400F0E7D268116821601060F2E701330A2B15
:106AC400E7D14FF0FF33ECE784230020094A38B5BF
:106AD4000123D2F8104482F820341D4604B938BD8D
:106AE400E3685D71236820465B689847E3681C6827
:106AF400F4E700BF84230020037A052B10B50C466D
:106B04000FD0437A23B1084A0849204601F0BAFC61
:106B14000749204601F0B6FC2046BDE8104001F0CC
:106B2400A6BC002AF8D0F3E76BEB0200B701030020
:106B34008DEB0200C38873B504460D4633B1144A85
:106B440000921449144A284601F09CFC217A052934
:106B54001CD0637A4BB1A088FFF7DAFD0F4B1049C4
:106B640053F82020284601F08DFC227A0D4BA08892
:106B740053F822600021FFF7AFFD0B49034632466C
:106B8400284602B0BDE8704001F07CBC02B070BD84
:106B94006BEB020078EB020070EB020038EB0200B2
:106BA400B70103009CEB020090EB02002DE9F043D7
:106BB40085B01F460C9D002306460C46904695F86A
:106BC4000C902B7329463846FFF7B4FFB8F1060F33
:106BD40009D8DFE808F00412181F283340003146B2
:106BE400284601F04FFC002229463846FFF784FF6F
:106BF40085F80C9005B0BDE8F0832268314628463C
:106C040001F040FCEFE7D4E900233146284601F0C7
:106C140039FCE8E7A36800933146D4E90023284609
:106C240001F030FCDFE7E3680193A3680093314689
:106C3400D4E90023284601F025FCD4E72369029314
:106C4400E3680193A36800933146D4E900232846FE
:106C540001F018FCC7E76369039323690293E368AF
:106C64000193A36800933146D4E90023284601F038
:106C740009FCB8E708292DE9F84F80460E46174667
:106C84001C4636D8002593F80C901D7319461046FF
:106C9400FFF750FFDFF87CA0DFF87CB0AE422AD9C2
:106CA40018F805205946204601F0ECFB0135082D63
:106CB400F4D11649DFF864B0204601F0E3FB002567
:106CC400AE421DD918F805A0504607F067FD00280C
:106CD40014BF52462E225946204601F0D3FB0135FB
:106CE400082DEDD1012221463846FFF705FF84F82F
:106CF4000C90BDE8F88F5146204601F0C3FBD5E760
:106D04000349204601F0BEFBE9E700BF66EB020041
:106D140064EB020062EB02005CEB020068EB020031
:106D24001FB50021039001AA44F20100CDE901112D
:106D340000F004F805B05DF804FB000010B572B66D
:106D4400FFF7C4FEFFF704FD0028FBD1104B114CE4
:106D54001149E41AE408240444F00100FFF762FE38
:106D64000E4B1B68DB0700D500BE0D4944F0020042
:106D7400FFF758FEBFF34F8F0A490B4BCA6802F462
:106D8400E0621343CB60BFF34F8F00BFFDE700BF4A
:106D940010EA020040EA0200FBEB0200F0ED00E022
:106DA40007EC020000ED00E00400FA05094A5378FC
:106DB40091780133DBB2994208BF002311789942DC
:106DC4001FBF03705078182303FB002014BF043046
:106DD400002070474028002073B5054600240DF1BB
:106DE40007000E468DF8074000F088FA0DF1060002
:106DF400FFF7DCFF90B10670094B9DF80620456053
:106E04005A709DF8070000F09DFA24B9054B4FF421
:106E14008012C3F80021204602B070BD0424F0E7BC
:106E24004028002000E100E0024B4FF43C6043F0B6
:106E34000103184720EC020038B50C4B0C4C4FF4FE
:106E44000032C3F8802001254FF48033C4F848335E
:106E5400C4F808336560FFF7E7FF064BA56000241C
:106E64001C60FFF7E1FF044B1C7038BD00E100E03B
:106E7400001001405C2900204D290020F8B51F4B6B
:106E84001F491B680025C1F84051C1F84451C1F89D
:106E94004851C1F84C51C1F80051C1F804514BB3E9
:106EA400D1F8044517490968641A24F07F442F4631
:106EB4001A68A24209D8A41A15441A7CDE691AB1C8
:106EC4001F74D3E905209047AEB90F4A0F4B1178D0
:106ED4001B788B4205D10133DBB2022B08BF0023A0
:106EE400137012780A4B43F822500A4B4FF4801265
:106EF400C3F80021F8BD3346DAE700BF602900205B
:106F0400001001405C290020592900205829002044
:106F14005029002000E100E02DE9F04FA04AA149EA
:106F240013780978A04D994285B03CD00133DBB287
:106F3400022B08BF002313709C4912789C4B0F68E6
:106F440053F822003B1823F07F4300220B602B6888
:106F540016461446944613B942B12B6006E01968EC
:106F640081420ED902B12B60091A19604FF0010851
:106F74002B68DFF844A201930027BEB9DFF840B2C2
:106F840066E0401A0C44D968C3F800C0D3F81CE08A
:106F940031B13A1922F07F42C3E90121DE611E4674
:106FA40001227346D7E70026B046E1E73446F66986
:106FB4007E4A63681268DFF80CC2A068991A21F04F
:106FC4007F41614500F2A5800144216001222274C1
:106FD4002A680023C4E90133E361002A40F0A28057
:106FE4002C60CAE75A1C9BF80210D2B291428BF86B
:106FF400002004BF00228BF80020182202FB03B3F8
:107004001A799C68022A1CD0032A12D0012A1FD1A3
:10701400207CE8B9D3E90312A2605A69E2609A6954
:10702400644BA2611B78002B0CBF0B4603466360C4
:10703400BEE700222B681146002B66D142B12B60BB
:1070440006E029680A468946002A59D10023237498
:107054009BF800309BF801209A42C3D12B682FB9CA
:10706400019A9A4202D1B8F1000F43D0002B73D099
:10707400D3F800A0504D4D4BD5F804751C68DFF8CB
:1070840048813E1B98F8003026F07F4603369BB9B2
:107094004FF48033C5F84433C5F80433474B4FF4F9
:1070A40000324FF00109C3F880211A60C5F800903E
:1070B400FFF7BAFE88F80090B2452CBF5444A419D7
:1070C40024F07F44C5F84045D5F80435DB1B23F094
:1070D4007F43E41B033324F07F44A3420AD9D5F849
:1070E4000435C5F84035FFF79FFE344B4FF40032AA
:1070F400C3F800212F4B00221A7005B0BDE8F08FB1
:1071040094422CD09146D2699EE719740122DB691E
:1071140092E7D31A23F07F43834234BFC31A002378
:10712400236053E721681368994213D8591A1160F0
:10713400E26155E7091AD8691A4638B10346186856
:107144008842F7D3401A1860184613462160E0615C
:10715400DC6112E71346F2E7FFF76EFECAE74C451F
:1071640011D1CB692B6073B9DFF840E00120CDE980
:107174000212CAF80800CEF800300E4B1870FFF760
:1071840053FEDDE902121368D269C9F81C2012B15A
:107194001068034413602B68994218BF012755E710
:1071A4005829002059290020602900205C2900204A
:1071B400502900204C2900200010014000E100E08B
:1071C40040280020FEFF7F004D29002008B5FFF76E
:1071D40033FE104B00200B2218809A700E4B18605F
:1071E4000E4B18700E4B18700E4B4FF48012C021CA
:1071F400C3F8802183F814131A6002F18042A2F5C7
:107204006F22C2F8080583F81113074BD2F804253E
:107214001A6008BD40280020602900205829002059
:107224005929002000E100E05C290020074B9B78ED
:107234004BB132B128B10368187C20B959745A6132
:107244007047072070470820704700BF402800207F
:107254002DE9F7431E4FBB7805460E469046A3B36F
:1072640098B304292FD943697BB3437C0024012BB1
:107274000DF107000CBF8946A1468DF8074000F0C8
:107284003DF80DF10600FFF791FDD0B10123037025
:10729400104B4560D3F80435C0E90498C0E90236C0
:1072A4009DF806307B709DF8070000F04BF824B978
:1072B400094B4FF48012C3F80021204603B0BDE807
:1072C400F0830424EFE70724F7E70824F5E700BF79
:1072D400402800200010014000E100E0064A9278B6
:1072E4003AB130B1426922B1002202740221FFF79F
:1072F40073BD0820704700BF4028002070B5EFF32D
:10730400108672B60C4A946801239CB993600B4BA7
:107314000B4DD3F8801029401160C3F88050D3F886
:10732400841051604FF0FF32C3F88420047006B912
:1073340062B670BD0370FAE76429002000E100E042
:10734400FC06FFBD084B9A6810B55AB150B9EFF36B
:10735400108172B6054A1C6814605C6854609860B9
:1073640001B962B610BD00BF6429002000E100E04D
:1073740070B5064D0646002455F8043B0BB1304663
:1073840098470134042CF7D170BD00BF7C2900203C
:10739400033080B240F2FD33984230B51FD8124B0F
:1073A4001A783AB91C895D892C440444A4B2B4F512
:1073B400806F0AD31A7DA2B99A8BDC8B22440244D3
:1073C40092B2B2F5806F0CD201220A8014461422C4
:1073D40002FB04335A8910445881002030BD09202F
:1073E400FCE70720FAE700BFB02900200B4A0C4B4A
:1073F4005188142000FB0131CB6833B9042049685B
:1074040010700122074801F0B9BA05230649137028
:1074140002238B80012200230968F3E794290020CA
:10742400B029002020220020782A002007B500235C
:1074340005490093054A09680548082301F008FA3C
:1074440003B05DF804FB00BF782A002034EC02008E
:107454002022002007B50023009301460823034A95
:10746400034801F0F5F903B05DF804FB2CEC0200CD
:107474002022002013B500230C4600930146042368
:10748400074A084801F0E4F938B9074B142202FB13
:1074940004340123237402B010BD0E20FBE700BFA7
:1074A40028EC020020220020B029002037B50A4829
:1074B4000A4B42689C881968538803250333057076
:1074C4009BB2002000909B0001EB8401044801F072
:1074D400BFF903B030BD00BF94290020782A0020F2
:1074E4002022002010B50146044800F03FFE1C2273
:1074F4000446002107F0BBF9204610BD642A002091
:1075040068B10268084B9A4209D14068074B984217
:1075140007D0013398420CBF012003207047032099
:1075240070470020704700BFDEC0ADDEFE011EF1D3
:107534004388033300EB8303994209D382884FF6CF
:10754400FF739A4206D00088B0FA80F04009704771
:1075540002207047012070472DE9F8430223DFF829
:1075640060800B800D46174600F5805600F1080434
:107574004FF00109B4420FD2236801330CD03146D5
:107584002046FFF7D5FF48B10FB187F800900228D5
:107594000BD14FF480632B80BDE8F883A368D8F83F
:1075A4000020934201D9C8F800302B886288033345
:1075B40013442B806388033304EB8304DAE700BFAE
:1075C400A8290020154A142303FB002070B50B687A
:1075D40044680D4604F58056ABB15C88033403EB74
:1075E4008404B4420DD2236801330AD031462046C4
:1075F400FFF79EFF01280BD010F0FF0F05D00228E3
:10760400EFD1002003E00834EBE72C60012070BDCB
:107614006388033304EB8304E3E700BFB02900204D
:10762400436873B504460D466BB3244AD1688B4254
:1076340029D31269934226D813F0030223D1204997
:107644000089098988421ED12068996888421AD124
:107654001C494868834203D900F5805083420ED305
:107664008A6993420DD902F58052934209D20123CB
:107674002B800020B0FA80F0400902B070BD1346A0
:10768400F6E70A20F6E700232B801E46019601A99F
:107694002888FFF797FF30B92B8801339BB2012B61
:1076A4002B80F3D9E9E7019B226899689142EED1D6
:1076B4006360034B1B892381DFE700BF2022002086
:1076C40094290020B02900202DE9F8431C461C4BC6
:1076D4001B7806460F4615466BB372B36CB3DFF8DE
:1076E40068804FF01409A388012B01D90A2020E0F7
:1076F40009FB03F318F803302BB92146A088FFF7E0
:1077040061FF20B92060A3880133A380EBE72368DD
:107714001EB1998832889142EFD11FB119883A88F5
:107724009142EAD19A68C5E90023064B1B892B8153
:107734000020BDE8F8830220FBE70520F9E700BF3D
:107744008C29002094290020B029002008B5074B7B
:10775400191D5888FFF736FF18B1BDE80840FFF738
:10776400A5BEBDE80840FFF741BE00BF9429002034
:107774002DE9F04FA04FDFF8A49289B00646B84631
:107784003B6823B949469D4800F02AFD3860D8F883
:10779400005029784B1E052B00F2FA80DFE813F025
:1077A40006005E005E00EE00EE005C0126B1944B24
:1077B40000225A600124ECE02B79032B1DD8DFE86A
:1077C40003F015022A358F490B78022B084619D08D
:1077D4000B7D022B4FF0010316D114225343C21820
:1077E4000020C8545068FFF735FE03E001232B71D5
:1077F400FFF71CFE002800F0BC80814B00225A6079
:107804000E24C6E00023E8E77D4A1370002353608A
:1078140041F61D54BDE07C497C48002302222B71B3
:107824008A800122096801F0A9F8E3E7764C002672
:107834002E712068734DFFF70DFE754BD4F800C010
:107844005A8814235343EA18EE5451682160A188DE
:10785400C2F804C011810222A280CBE7B5F814A0BB
:10786400AA7DDFF8A0B1AEB1022AEB8806D91421B3
:1078740001FB0AB1DA1C088902440A81142202FBC2
:107884000ABAC3F57F43BAF80A20FD331344AAF8B1
:107894000A308FE7142303FB0AB318895C6804EBEE
:1078A4008004062A68D8DFE802F0274D35431D59C5
:1078B400040041F61D54AA7DEB88022A06D914213E
:1078C40001FB0AB1DA1C088902440A81142202FB72
:1078D4000ABAC3F57F43BAF80A20FD331344AAF861
:1078E4000A3056E04B484C4900234360AB690360BF
:1078F400FFF796FE002871D00223AB750023009396
:107904000423EA182146414800F0A2FF002830D0A1
:107914000E24D0E72B69002B14BF03230123AB757E
:107924000023009305F10C02042304F10801EAE7A3
:107934000123AB750022EB8800929B002A6904F1B5
:107944000C01E0E703290CBF05230623AB750023D4
:107954000093042305F10802E118D4E70623AB756C
:107964002D4B19882B4B5868FFF784FD04460028DB
:10797400A1D109B0BDE8F08F0F249CE7002E7FF45D
:1079840019AF2B79012B4BD0E3B1022B3FF440AF5D
:107994000F241422002103A806F069FF41F61D53A9
:1079A4009C4208BF0024D8F8003004941A78023AA4
:1079B400042A00F20581DFE812F0E600F200150166
:1079C4001D01240102232B710DF10A01EB680393BD
:1079D40003A8CDE90466FFF723FE08B90A24D8E713
:1079E4000498BDF80A108388EB8003882B81FFF785
:1079F40041FD044627E000BFAC290020642A002092
:107A04008C290020B0290020782A00202022002080
:107A14009429002070290020842A0020A429002011
:107A2400DFF8FCA103AA53463146A81DFFF74CFE1C
:107A3400044658B9BAF804100498FFF71BFD04462D
:107A44000A2C3FF4E5AE002CA3D192E7082231467C
:107A5400504606F00CFFF3E7002E7FF4ABAE6B4B01
:107A64001A7BAAB11E731A78013A062A90D801A18A
:107A740051F822F01F7B0200457B0200637B020069
:107A8400697B0200957902006F7B0200817B020012
:107A94001A78072AE7D801A151F822F0C17A020026
:107AA4006B7A02006B7A0200E77A0200FB7A02002A
:107AB4001B7B02001B7B0200E37A02001A895449F3
:107AC40001321A8100225A801A730A78B2FA82F2B9
:107AD40052099A720A7DB2FA82F25209DA720122CA
:107AE40007E04C4958688A884088033202448A80F7
:107AF40002221A70B7E7464C5A884649142505FBFA
:107B040002420868546850608888108102228A8082
:107B14000C600622EDE70722EBE79A7A32B9DA7AAB
:107B24008AB900221A705A805A6071E638490022D4
:107B34009A72CA68002AF2D1097C0029EFD05A80CF
:107B4400FFF704FE55E70022DA72314A116A002970
:107B5400E7D192F82420002AE3D00122EFE7FFF7CF
:107B6400A5FC46E7FFF742FC43E7294A5B8814215A
:107B740001FB03235868FFF76DFC3AE700225A60C3
:107B8400FFF754FC35E701228DF80C201A89ADF873
:107B940018209A88DB68ADF81A20059310E00222B9
:107BA4008DF80C201A89ADF818209A88ADF81A209F
:107BB400DA689B7D05929A1F534253418DF81C301D
:107BC40003A8FFF7D5FB002649461348C8F8006010
:107BD40000F031FB0121114800F0E0FB00287FF4A4
:107BE400CFADC6E603228DF80C20DA88ADF8182054
:107BF4001A89CFE70422DB888DF80C20ADF8183001
:107C0400DEE705238DF80C30DAE700BF9429002065
:107C1400B0290020782A0020642A0020742A002039
:107C2400882A00204068FFF7A3BD000008B50121A1
:107C3400044800F09DFB18B9BDE80840FFF798BD63
:107C440008BD00BF742A00202DE9F3419846354B46
:107C54001B7806460D46002B5BD000295BD00988B3
:107C64004FF6FF73994258D06B88002B55D06B6840
:107C74009B0754D14AB92F890DF102013846FFF709
:107C840087FB30B102B0BDE8F08113885788ADF8A6
:107C9400023001A8FFF726FC044658B9BDF80230AB
:107CA400214A142101FB032358890338C01B58813E
:107CB4000820E7E700238375BDF8023083826B68F0
:107CC400036180F800800121184800F05CFB2B88D8
:107CD4002381B8F1030F6B88A38004BF0423A37529
:107CE4004FF0000508BF3368E06008BFA361E78078
:107CF400658101A90E4800F063FA36B1E368336088
:107D04000C4B75601B89B5723381FFF78FFF002020
:107D1400B8E70220B6E70520B4E70420B2E7032061
:107D2400B0E700BF8C290020B0290020A82900203A
:107D3400642A00209429002008B5084B1A68042AF4
:107D440009D01968064A42F821000121184600F0BA
:107D54001AFB002008BD0C20FCE700BF802A00208D
:107D64007C2900202DE9F04F14228BB000210DEB6B
:107D7400020006F07CFD744A137803F0FF01CDE99C
:107D840001123BB105A8FFF7F3FA002738460BB000
:107D9400BDE8F08F029B181D00F00BFB0028F4D106
:107DA4004FF010234FF080525B6911695269674CA0
:107DB400581C08BF02FB01F323610022A3F54053C2
:107DC4006349E360204600F00FFD03940746002852
:107DD400DCD11C238C225F495F48DFF88891DFF8EF
:107DE400888100F08EF93D46BA464FF0030B3C46BD
:107DF400039BDE68564430463146FFF781FB012879
:107E04004DD042B2002A36D0032822D106F5805242
:107E14000868013040F08A8004318A42F8D1D9F8E8
:107E240000203AB902220123C9F80060A9F804200D
:107E340001930CE014226243022008EB020108F8CB
:107E44000200464A4E60548001340881A4B245F0D1
:107E540001050AF5805ABAF5405FC9D1BBF1010F9B
:107E640098BF0025EDB2022D03D0062D35D0002D8C
:107E74003CD10B278AE71421614308EB010008F881
:107E8400012001F110020831466042444144304669
:107E9400FFF762FB45F002050134A4B2D9E7019B68
:107EA40063B11422624308EB0201022008F80200C5
:107EB4000134D9F800204A600881A4B2002228497C
:107EC400C9F800603046FFF747FBB9F80420022ADE
:107ED4000CBF042208221543BBE7029A0123137046
:107EE40005A800235360FFF743FA4FE704A8FFF700
:107EF400F9FAC8B10123013D03700A2D09D8DFE85E
:107F040005F006080608070807080F110F000023EC
:107F1400037104A9104800F053F9FFF787FE35E711
:107F24000323F5E70223F3E708272FE70BF1FF32DA
:107F34001FFA82FB1422624308EB02014E60032104
:107F440008F80210A8E700BF8C2900202022002096
:107F540028EE0200D8290020642A00209429002059
:107F64007C2A0020782A0020B029002073B50D4611
:107F74000446C8B1C1B10DF10601FFF751FBA8B128
:107F84000B4BBDF806006668142202FB0030012189
:107F94000C3000F0F8F963682E600C336B60012339
:107FA400A372002002B070BD0520FBE70A20F9E7A8
:107FB400B029002013B50446A8B10DF10601FFF75E
:107FC4002FFB90B10B4ABDF80630142101FB0323AB
:107FD400DA6862B1A27A52B1DA680020013ADA6052
:107FE400A07202B010BD0520FBE70A20F9E70620C5
:107FF400F7E700BFB029002002230022FFF724BEC8
:1080040018B103230022FFF71FBE052070470000AC
:10801400104B1B7813B50446ABB14FF6FF7398426F
:1080240013D001A8FFF75EFA88B10523037001237A
:108034000371C48001A9084800F0C2F8FFF7F6FDF7
:10804400002002B010BD0220FBE70420F9E708205D
:10805400F7E700BF8C290020642A00200E4B1B7810
:1080640007B5A3B101A8FFF73DFA90B10623037049
:1080740001A90A4800F0A4F8094B1A780AB10122B0
:108084001A73FFF7D3FD002003B05DF804FB022050
:10809400FAE70820F8E700BF8C290020642A0020B2
:1080A4009429002007B5ADF80600ADF804100DF1D1
:1080B400060001A9FFF708FB03B05DF804FB07B550
:1080C4001346ADF806000A4600200DF10601FFF73D
:1080D400FBFA03B05DF804FB07B51346ADF80600E0
:1080E4000A460DF106000021FFF7EEFA03B05DF831
:1080F40004FB20B119B103680B6000207047052010
:10810400704710B561B1B2FBF3F403FB1424A4B2BD
:1081140044B9C0E9001484608281C381204610BD43
:108124000E20FCE70920FAE782B050E8022FC1884C
:10813400B2EB324F4FF0000317BF92B241EA014154
:1081440042EA014104E04268B2EB324F08BF012326
:1081540040E80212002AE8D18DF807309DF8073074
:10816400002B0CBF1120002002B0704737B550E837
:10817400013F9DB2C48925448489A54228BF2D1B93
:108184000489A54202BFBFF32F8F002207E0C5EA8E
:10819400030540E80154002CE9D14FF001028DF8A9
:1081A40003200193019B9DF803200B6002F0FF0361
:1081B40022B10B880068184403B030BD1846FBE7B1
:1081C4000A884B889A4209D150E8012FC2EA024238
:1081D40040E80123002BF7D10120704700207047AD
:1081E40037B550E8023F1FFAA3F5C488A54202BF81
:1081F400BFF32F8F00220DE0C48925448489A54252
:1082040028BF2D1BC3EA054540E80254002CE8D1E1
:108214004FF001028DF803200193019B9DF8032088
:108224000B6002F0FF0322B14B880068184403B0CE
:1082340030BD1846FBE70A884B889A4209D150E8BA
:10824400022FC2EA224240E80223002BF7D1012088
:1082540070470020704701F01F024B090121914033
:1082640000EB830000F063B84B0910B501F01F0464
:108274000121A14000EB830000F04EF8E04000F043
:10828400010010BD01F01F0301229A404B0900EBCD
:108294008300D14300F061B84B0901F01F0150F88D
:1082A4002300C84000F0010070472DE9F0474E1E3E
:1082B400760980460F460136002558F8254008EB1C
:1082C4008509E44394FAA4F4B4FA84F44FEA451A11
:1082D400202C06D10135AE42EFD83C462046BDE8FD
:1082E400F0875444A742F5D921464046FFF7BCFF26
:1082F4000028F3D0D9F80040E44394FAA4F4B4FA83
:1083040084F4E5E750E8002F0B4640E8003C9CF07D
:10831400000FF7D11046704750E8002F42EA0103DE
:1083240040E8003C9CF0000FF6D11046704750E83E
:10833400003F43EA010240E8002C9CF0000FF6D114
:108344001046704750E8002F02EA010340E8003C61
:108354009CF0000FF6D11046704750E8003F03EA46
:10836400010240E8002C9CF0000FF6D11046704743
:1083740050E8002F02EB010340E8003C9CF0000FA2
:10838400F6D11046704750E8003F03EB010240E885
:10839400002C9CF0000FF6D11046704750E8003FC7
:1083A400A3EB010240E8002C9CF0000FF6D110462C
:1083B40070470121FFF7B0BF0121FFF7B8BF0021CB
:1083C400FFF7C0BF10B590B1D0E9012301689B1A33
:1083D400DBB20A60013BDBB2FF2B026802D1002052
:1083E400107110BD11684C1C14600B70F2E70E2064
:1083F400F7E737B5054600240DF107008DF807406F
:10840400FEF77CFF2A686B68116899420ED9481EF2
:10841400106011F8014CEB68298A01FB0434AB6845
:1084240011791B1ADBB2994238BF13719DF807000A
:10843400FEF788FF204603B030BD37B5054600235C
:108444000DF107000C468DF80730FEF757FF2A6838
:108454001368591C1160E968641A298AB4FBF1F4A1
:108464001C709DF80700FEF76DFF03B030BD8268F5
:1084740010B504462AB1436901680069984700238E
:10848400A36010BD0EB403B5039921B104AB01AAD6
:10849400019300F06DF802B05DF804EB03B070478F
:1084A400826830B40468551C8560A154D0E9013257
:1084B4009A4202D330BCFFF7DABF30BC70470000E9
:1084C4002DE9F84F9946DDE90A4317468246884666
:1084D4000A460126BA420FD24E4538BF4E4613F023
:1084E400010B01D164B900240125B9F1010F1AD996
:1084F40009F1FF397D43F8E7B2FBF7F20136E9E70A
:108504009B070ED5B9F1000F0CBF30252025A642DC
:10851400EAD2013C29465046FFF7C2FF002CF6D1AF
:10852400E1E72025F3E7B8FBF5F39F42E2D9DFF852
:108534003C90B8FBF5F3504619F8031005FB13887B
:10854400FFF7AEFFB5FBF7F3BD4207D2BBF1000F57
:1085540002D00CB1A64203D3BDE8F88F1D46E8E76C
:1085640020215046013CFFF79BFFF2E73CEC020060
:108574002DE9F74F054617468846002900F031815A
:1085840018F8011B49B92B7B002B00F02A812846DF
:1085940003B0BDE8F04FFFF76ABF252940F0C08063
:1085A400002698F800302D2B424608F1010823D00C
:1085B400302B24D02B2B25D000242A2B02F10101AF
:1085C40023D13B681A1D1B683A601C440A46137881
:1085D4002E2B26D101324FF0000A104610F8011B51
:1085E400A1F1300CBCF1090F1DD80A2303FB0A13B7
:1085F400A3F1300A0246F0E746F00106D1E746F05F
:108604000206CEE746F00406CBE711F8013CA3F1DD
:1086140030000928DBD80A2202FB0434303C0A4625
:10862400CBE74FF0000A12F8011B01F0FB006828A9
:108634009046F8D069290ED04AD8582964D006D873
:1086440025296DD098F80030002B99D19BE7632938
:1086540062D06429F6D13A68D2F80090111D89EAF3
:10866400E9723960A2EBE9724FF0010B092A5BDC75
:10867400D34538BFD3462CB1B9F1000F01DB7107E4
:1086840000D5013CB20702D5BAF1000F04D0F307BC
:1086940002D4002C4ED10024B9F1000F52DAC9F1F2
:1086A40000092D212846FFF7FBFE06F00302022AEB
:1086B40005D1BAF1000F02D1002C47D10024CDE935
:1086C400004653460A2249462846FFF7F9FEB9E711
:1086D40073294CD014D87029B4D13B681A1D3A6060
:1086E400302128461C68FFF7DBFE78212846FFF777
:1086F400D7FE00220823CDE9003221461022E3E709
:1087040075292BD078299DD139680A1D3A60CDE9A5
:1087140000465346102228E03B681A1D19783A6037
:108724002846FFF7BDFE8DE70A230BF1010BB2FBD0
:10873400F3F29BE7A345AFD220212846013CFFF783
:10874400AFFEA6E77007B0D52B21ABE7A345B6D2A1
:1087540030212846013CFFF7A3FEADE73968CDE997
:1087640000460A1D3A6053460A220968ACE73B6892
:108774001A1D3A60F107D3F8009020D4B9F1000F24
:1087840025D0484606F0C8F80646B44200D9C4B914
:1087940009F1FF3920E028460136FFF781FE19F878
:1087A40006100029F7D1A642BFF44CAF002C3FF4C9
:1087B40049AF20212846013CFFF772FEF3E700266B
:1087C400EDE720212846013CFFF76AFEDDE74E462F
:1087D400DBE72846FFF764FE19F8011F0029F8D1EA
:1087E40030E703B0BDE8F08F07B50B4688B9124BEC
:1087F4001248134AC01A0E23C0080093114B0004F8
:10880400114940F00100FEF724F90E2003B05DF891
:1088140004FB4BB9084B09480C4AC01AC0080E2384
:1088240000930004074BEBE703601B68114603B099
:108834005DF804EB184700BF10EA020058EA020092
:10884400F9EC02004CEC0200FEEC020075ED0200B3
:108854002DE9F34188B93D4B3D483E4AC01AC00852
:108864000E243D4B009400043C4940F00100FEF707
:10887400F0F8204602B0BDE8F0814AB9334B3448E1
:10888400374AC01AC0080E2400040094324BEBE7A8
:10889400D0F800C0BCF1000F09D12C4B2C48314A50
:1088A400C01AC0080824000400942B4BDCE74BB921
:1088B400264B27482C4AC01AC008092400040094F7
:1088C400254BD1E74768D7F80480B3FBF8F708FBDA
:1088D40017374FB11D4B1E48244AC01AC00809243B
:1088E400000400941C4BBFE78F0709D0174B1848AE
:1088F4001F4AC01AC008102400040094164BB3E7A2
:1089040012F0030F09D0114B11481A4AC01AC008BB
:10891400102400040094104BA6E7C768B9420BD397
:108924004C1E05691C44AC4206D8DCF80C40A44635
:1089340002B0BDE8F0416047044B05480E4AC01A36
:10894400C008102400040094034B8DE710EA0200D1
:1089540058EA0200F9EC02005EEC0200FEEC0200B0
:108964007BED02006FED02002EED020081ED0200AE
:10897400ABED0200C3ED0200E6ED0200F7B580B9ED
:108984002A4B2B482B4AC01AC0080E242A4B0094A9
:1089940000042A4940F00100FEF75BF8204603B0CA
:1089A400F0BDD0F800C0BCF1000F09D11F4B204826
:1089B400234AC01AC0080824000400941E4BE8E7A8
:1089C4004AB91A4B1A481F4AC01AC008092400049D
:1089D4000094194BDDE74768D7F800E00EF1FF3744
:1089E4000F4209D0114B1248174AC01AC00810246C
:1089F40000040094104BCCE7C768B9420CD34C1E5A
:108A040005690EFB0244AC4206D8DCF81040A446CB
:108A140003B0BDE8F0406047044B05480B4AC01A58
:108A2400C008102400040094034BB2E710EA0200CB
:108A340058EA0200F9EC020071EC0200FEEC0200BC
:108A44006FED02002EED020084EC0200AAEC02009D
:108A540029DF704728DF704770B503689D6886B0CA
:108A640004460E466DB114220021684605F0FFFE4F
:108A7400A3680593237901962BB1012B0DD0684689
:108A8400A84706B070BD01238DF800302369029316
:108A9400E368039363690493F1E702238DF80030DC
:108AA400E3681B030293F5E708467047002070470C
:108AB400024B187A003018BF012070472C2B00207D
:108AC400034B187A0122B0FA80F05A7440097047B7
:108AD4002C2B002008B510461A4605F09FFE0020F6
:108AE40008BD000008B514220021044805F0BFFEAB
:108AF4000348FFF719FB002008BD00BF2C2B002002
:108B04001C2B002010B5094C094B43602046FFF78D
:108B140050FC40B905F086FC1C2320748C220549C6
:108B24000548FFF7EEFA002010BD00BF2C2B0020F3
:108B34001CEE0200902A00201C2B002070B5244D4E
:108B4400244E2B7A2C463BB923492448FFF748FB93
:108B5400306008B9686070BD0223237233681A79E3
:108B640072B1012A24D018460321FFF775FF0023B0
:108B74002372636018491948BDE87040FFF75BBB76
:108B8400D3E90520121AB2F5805F28BF4FF4805252
:108B9400D3E903159208012A014438BF012228446D
:108BA400FFF756FF50B11128DDD101232372D2E71C
:108BB400D3E903021044FFF74DFFF3E7237C002BB6
:108BC400C9D10146BDE87040022000F009B800BFD9
:108BD4002C2B0020442B0020402B00201C2B002099
:108BE40038B5831E012B45D8234C237A002B41D062
:108BF400022B09D1032830D0204B1B680022E260ED
:108C04001A793AB1012A22D0637C7BBBBDE8384093
:108C1400FFF794BFD3E905128D1AB5F5805F94BFB1
:108C2400521902F580529A619142EDD102284FF017
:108C3400000308BF19462372104B18BF0D21186892
:108C4400FFF70AFF0E490F48FFF7F5FADCE71A6948
:108C540001321A615B699A42E7E7E3680133082B42
:108C640001D8E360D0E70023E360DFE7BDE83840E4
:108C740005F0C8BB38BD00BF2C2B0020442B0020BE
:108C8400402B00201C2B002000F0FD03012B08D1F9
:108C9400044B00225A74421E504250411874FFF78C
:108CA4004DBF70472C2B002010B5064C201DFFF73C
:108CB40080FB28B9637C1BB9BDE81040FFF73EBFB9
:108CC40010BD00BF2C2B00202DE9F34180460D463A
:108CD4000F4801A916461F46FFF748FA0446A8B1F3
:108CE4001C22002105F0C3FD2D0B0123237101A9D2
:108CF400C4F80080A760E56066610548FFF760FA84
:108D0400FFF7D2FF002002B0BDE8F0810420FAE7AB
:108D14001C2B00202DE9F74381468846104801A901
:108D240017461E46FFF722FA0446B0B11C22002162
:108D340005F09DFD00250A9BA36001A92571C4F8D7
:108D44000090C4E9037866610548FFF739FAFFF734
:108D5400ABFF284603B0BDE8F0830420FAE700BF68
:108D64001C2B00202DE9F047B0F806904479D2F886
:108D740000A09DF8208009FB04F4043C06460AEB9D
:108D84000300A0420F4688BFA4EB030A191DC2F8D2
:108D940000A0B1FBF9F509FB15114DB9A9EB0104CC
:108DA400544528BF5446BAF1000F04D1BDE8F087FA
:108DB4003668013DF1E704317B1970182246B8F199
:108DC400000F0ED001461846AAEB040A05F026FD52
:108DD400D145254436684C464FF0000128BF54461F
:108DE400E1E71946F0E7FFF7EDBAF8B54679014631
:108DF400721E0546002393422D6803D30024A64225
:108E040002D8F8BD0133F6E70F682846FFF715FBD3
:108E140001343946F3E72DE9F843068ACD1C0746A9
:108E2400FFF7E7FA043E35440446B5FBF6F5F0B126
:108E34004FF48073EDB28380C680013D07608146A4
:108E44004FF00008A84512D23846FFF7D2FA06467A
:108E540048B163790133637108F10108C9F800006E
:108E640007608146EEE72046FFF7BFFF3446204601
:108E7400BDE8F88301210430FFF785BA10B501215C
:108E840004460430FFF78AFA10F0FF0F04D120469D
:108E9400BDE81040FFF7A9BF10BD1FB50392002223
:108EA400009203AAFFF75EFF05B05DF804FB1FB54F
:108EB40003920122009203AAFFF754FF05B05DF864
:108EC40004FB41DF70470000064B10B500241C7002
:108ED400054B1C60BFF35F8F0449054800F039F867
:108EE400204610BD502B0020542B002048EE0200D9
:108EF400482B002007B500230DF107008DF807303B
:108F0400FEF7FCF9F1EE103A23F09F03E1EE103A7C
:108F1400BFF35F8F094B4022C3F884219DF80700FB
:108F2400FEF710FA05F07EFA20B1FFF7CAFF03B08E
:108F34005DF804FB20BF40BF20BFF8E700E100E07C
:108F4400836800225A609A60C3E90422DA601A60D6
:108F540070470B684A684360934208BF002301606E
:108F640008BF43607047436843B102689168526820
:108F74000B449342436004BF0023436070470000E6
:108F840010B50D49A1F59472914201D800200FE06B
:108F94008B1ADB1003EBD3735B1002EBC30452F8A0
:108FA4003330834205D802D204F10802ECE760684A
:108FB40010BD2146E8E700BF98EF020008B5FFF7AF
:108FC400DFFF024B002808BF184608BD5DEE020013
:108FD400054B1B68082B01BF044B1868B0FA80F0DE
:108FE400400918BF00207047300100103401001000
:108FF40008B54FF080430022C3F80C21C3F81021B8
:10900400C3F838254FF0805203F54043D2F80414D6
:10901400C3F82015D2F80814C3F82415D2F80C1498
:10902400C3F82815D2F81014C3F82C15D2F8141468
:10903400C3F83015D2F81814C3F83415D2F81C1438
:10904400C3F84015D2F82014C3F84415D2F82414F8
:10905400C3F84815D2F82814C3F84C15D2F82C14C8
:10906400C3F85015D2F83014C3F85415D2F8341498
:10907400C3F86015D2F83814C3F86415D2F83C1458
:10908400C3F86815D2F84014C3F86C15D2F8442418
:10909400C3F87025FFF79CFF10B1384B384A1A60AB
:1090A400FFF796FF18B1374BFB22C3F81825FFF7DB
:1090B4008FFF48B13449354B0A681B6822F00F0210
:1090C40003F00F0313430B60FFF782FF18B1304B1B
:1090D4004FF400721A604FF08043D3F80024D20793
:1090E40044BF6FF00102C3F800242A4AD2F8883042
:1090F40043F47003C2F88830BFF34F8FBFF36F8F10
:109104004FF01023D3F80022002A03DBD3F80432F3
:10911400002B2FDA204B0122C3F80425D3F80024B6
:10912400002AFBD04FF010221221C2F80012D3F80B
:109134000024002AFBD04FF010231222C3F804228B
:10914400154B1A46D3F800140029FBD00021C3F8AC
:109154000415D2F80034002BFBD0BFF34F8F0D4918
:109164000E4BCA6802F4E0621343CB60BFF34F8F27
:1091740000BFFDE70A4B0B4A1A6008BD8C5600403D
:109184004881030000F00040E40E00405802001043
:109194004096024000ED00E000E001400400FA05C2
:1091A4003C2200200090D00338B5074C051E04F182
:1091B400080318BF1C4623682BB11A6822605B6839
:1091C40028469847F7E738BD602B002020B9054BA7
:1091D40001225A70FFF7E8BF012802D1014A9070BA
:1091E400F8E77047582B002020B9034B01225A702E
:1091F400FFF7DABF704700BF582B002038B50B4C7F
:10920400237883B90A486360A3602361E36000F0B4
:1092140061F8054605F006F908B900F067F801237E
:109224002370284638BD8525FBE700BF582B002056
:10923400D191020037B50B4C00230DF107008DF8D6
:109244000730FEF75BF8E368013BE360E56815B9B6
:1092540000F060F8A5709DF80700FEF773F803B0FE
:1092640030BD00BF582B0020012813B509D018B118
:1092740003281CD002B010BD0F4B0122C3F880207C
:10928400F8E70E4C00230DF107008DF80730FEF7C8
:1092940035F823780BB9FFF7B1FFE3689DF80700B1
:1092A4000133E3600123A370FEF74CF8E2E700F01A
:1092B4001DF8FFF7BFFFDDE700E100E0582B0020B9
:1092C40000F18040002382B0036003680193019B96
:1092D40002B07047044A137923B9012110609180C8
:1092E40018467047852070476C2B0020084B1A687D
:1092F400D20706D4C02283F800230122C3F88021B8
:109304001A604FF080430122C3F81825704700BF4C
:1093140000E100E0044B01221A604FF08042D2F8D1
:109324001834DB03FBD470470C000040124B1B685D
:1093340010B573B14FF48070FFF7C2FF4FF0804354
:109344000122C3F808230D4B587910B95A711B68D0
:1093540098470B4B1B6873B14FF48270FFF7B0FF53
:109364004FF080430222C3F80823044B01201B68FA
:10937400BDE81040184710BD000100406C2B0020D0
:109384000401004000F1804000F5C040002382B099
:10939400036003680193019B02B0704703681F2BAD
:1093A40083BF03F01F03036001484FF0A0407047E0
:1093B4000003005007B5019001A8FFF7EFFF019BE0
:1093C40000EB8300D0F8002722F44032C0F80027D5
:1093D400D0F8003743EA0143C0F8003703B05DF822
:1093E40004FB00002DE9F04F002489B0CDE90244CC
:1093F400624D4FF48072012102F1804303F5C043B2
:1094040090B21B68012B06D1D5F804330B4202D06D
:10941400FFF7B8FF0C430432B2F5907F4FEA4101E5
:10942400EAD1574B1B68012B0ED14FF4BE70FFF7E6
:10943400A9FF4FF0A04344F00044D3F81035029341
:10944400504BD3F81035039314F0FF0F1AD04E4F3E
:1094540000250126344210D0AB0003F1804303F50C
:10946400C043D3F81005D3F8101557F8253023B1AD
:10947400C1F30141C0F3052098470135082D4FEA97
:109484004606E7D1002C75DA0DF110080023049389
:10949400C8F804304FF0FF33CDE90633DFF8E8A015
:1094A400DFF8E89000273D4619F9014B631C48D0CA
:1094B400E4B2012324F0C00604F0070203FA02F226
:1094C400F00808AB191811F8083C134239D00AEB1C
:1094D4000603A40993F930305AF823B0BBF1000F06
:1094E40008D1032C2DD118F800C04CEA020C08F85E
:1094F40000C001E0032CF6D001A80196FFF74EFF4F
:10950400019B11F8181C03F5E07C114250F82C0063
:10951400C0F3014005D0022813D1032C0BD12146FE
:1095240004E003280DD1032C05D102213046FFF7B6
:1095340041FF0135EDB2BBF1000F02D021463046A8
:10954400D8470137042FAFD1A5B14FF0A0430299FA
:10955400D3F8102503F540739142D3F8103502D1A6
:109564000399994206D002920393049A059B0692AA
:10957400079395E709B0BDE8F08F00BF0060004095
:109584007C61004000030050742B0020D42B002089
:10959400014B1B68184700BFE02B002000F18040FE
:1095A40000F5E040002382B0036003680193019B4F
:1095B40002B07047F0B5534B534C1B6885B0002B79
:1095C4003DD04FF4827094F82E20FFF7E7FF2AB3C2
:1095D40094F82F3013BB4D4B1B68002B33D04FF442
:1095E4008070FFF7DBFF94F82D20638B91B28B42E0
:1095F4004ED95B1A21899BB26383CB1A616801EB54
:109604004301434BC3F82C16C3F830264FF4827041
:10961400FFF7C4FF3F4B01221A6014E06368029312
:109624002389ADF80C30E36800218DF8041023BBC6
:109634002374236801A89847002384F82F3094F8F2
:109644002E30002BC7D1344B1B685BB14FF48870AC
:10965400FFF7A4FF0023237402238DF8043001A82C
:10966400236898472D4B1B6813B34FF48A70FFF798
:1096740095FF0023237405B0F0BD208B60836360E5
:109684002081E160002AD4D1214B01221A60D0E765
:10969400BCD1E368012184F82F103BB10021618320
:1096A4001B49C1F82C36C1F83026AFE76383ADE718
:1096B40066694FF000470125002EDCD0B6FA86F229
:1096C40027FA02F34632920026EA030602F18043A7
:1096D40003F5E0431B68002BEED01046FFF75EFF56
:1096E400A2F58C72D30882F00402C2F380028DF8D2
:1096F40008308DF804508DF80920236801A8984794
:10970400DAE700BF04710040E82B0020007100403C
:10971400007000400470004010710040147100405B
:1097240038B51D4B044693F82C0098BB1B4A1960AE
:109734002178C2F8F0156178C2F8F415E578187448
:10974400012183F82C1083F82D00586183F82F0031
:1097540083F82E506FF00043C2F808334FF4827040
:10976400FFF71CFF4FF48070FFF718FFA3780C4835
:109774005B01DBB280F807338023C0F880310360DB
:109784000223C2F804330DB1C2F80413C2F8001561
:10979400002038BD0820FCE7E82B002000700040C2
:1097A40000E100E0224B1A7C30B5002A3ED100F1E2
:1097B4000C0403EB4402127922B993F82D200132F0
:1097C40083F82D2003EB4403CA790C7A1A715C7177
:1097D4008D784B782D021B0105F4E06503F030030E
:1097E4002B430D7805F003052B43CD782D0305F4A9
:1097F40080552B430D792D0405F4E0252B434D7939
:1098040089792D0505F48015090601F080712B4333
:109814000B43010101F1804101F5E0410020C1F851
:109824001835C1F81445C1F8102530BD1120FCE7E6
:10983400E82B0020264A274B70B505461220C2F8B3
:1098440008031C7C022C03D1C2F80403112070BD50
:10985400187C01281DD1D86818B10223C2F804333A
:10986400F4E7DD60198393F82E3063B91A4A13685C
:10987400002BFCD04FF48070FFF790FE144BC3F81C
:109884002C56C3F83016124B0222C3F804230020CE
:10989400DDE7022093F82E40C2F8040301260020DD
:1098A4001E745D601981D8603CB1598393F82D30E2
:1098B400C2F82C56C2F83036C9E7C2F82C564FF419
:1098C4008070C2F83016FFF769FE20461660BEE7C6
:1098D40000700040E82B002000710040084A137C0F
:1098E400DBB2012B09D192F82E0018B1054A0020F1
:1098F40013607047044A136070470820704700BF24
:10990400E82B00200070004004700040032813D8A6
:10991400012A0BD1012908D100F10E02D2B200EBC9
:1099240040000C4B1A540020704700220129F6D045
:109934004BB24BB1022901D007207047054B00EB15
:10994400400018444270EEE7024900EB400008442E
:109954008270E8E7182C002008B5012202210020BB
:10996400FFF7D4FF08B1072810D1072202210120F4
:10997400FFF7CCFF08B1072808D100210A220846C6
:10998400FFF7C4FF10B1072808BF002008BD00007E
:109994000388102B10B502D0112B1ED010BD1A4C09
:1099A4002168B1B901220846FFF7B0FF08B10728C2
:1099B40024D1072202210120FFF7A8FF08B10728BC
:1099C4001CD1042202210020FFF7A0FF08B10728C0
:1099D40014D1236801332360E0E70B4A1368013B89
:1099E4001360002BDAD1FFF7B7FF0028D6D0074B5E
:1099F4001B68002BD2D0BDE810401847034B1B68EE
:109A0400002BE6D09847E4E7282C0020242C0020E3
:109A140076DF70477ADF70477CDF70478FDF7047EF
:109A240033DF7047FDF77CB913B50023ADF806307A
:109A34000378044653BB05214068FFF7FBFE08B1D9
:109A4400FDF76EF96268911E083231F8023FBDF8E5
:109A5400060003449BB28A42ADF80630F5D10C4CA3
:109A64000522B3FBF2F32288ADF8063005329342A7
:109A740003DC2288053A934205DA00220DF106013F
:109A8400044800F05BFBBDF80630238002B010BD33
:109A94002E2C0020C82E00200A4A08B51388013352
:109AA4001380FFF71BFF084B08480949C01AC00878
:109AB400000440F00300FCF7B5FFBDE8084000F0E7
:109AC400D4BB00BF2C2C002010EA020040EA0200A4
:109AD40083F302000388212B13B504463CD005D838
:109AE400102B1AD0112B0AD002B010BD3B2B01D081
:109AF400562BF9D11321A088FFF78AFF27E01A4BD0
:109B04001A481B49C01AC008000440F00300FCF7BF
:109B140089FF1848FDF7E2FBE6E7134B13481649A3
:109B2400C01AC008000440F00300FCF77BFF4FF0AC
:109B3400807000F091FB4FF4804100220D48FDF746
:109B440087FB0E4BA1880E48198002F081FA002889
:109B5400CAD0FDF7E5F8C7E7002301A98088ADF86E
:109B64000430FFF75BFFF2E710EA020040EA02006C
:109B74009CF30200882E0020AAF30200C82E0020C5
:109B8400E42E002008B503784BB93B214FF6FF7053
:109B9400FFF73EFF18B1BDE80840FDF7C1B808BDA6
:109BA40008B588B103281AD10D4B0E480E49C01AC6
:109BB400C008000440F00300FCF734FF4FF4000039
:109BC400BDE8084000F048BB4FF4800000F044FBBF
:109BD400FFF726FF18B1BDE80840FDF7A1B808BD9E
:109BE40010EA020040EA0200F0F3020008B5032183
:109BF400044800F0F4FE18B1BDE80840FDF790B841
:109C040008BD00BF302C002010B5044603F0CCFC86
:109C1400204603F0EFFA23780C2B03D1BDE8104063
:109C2400FFF7E4BF10BDFDF77BB800001FB5114A74
:109C340010685168127A01AB03C30F491A700F48B8
:109C440005238DF80630FFF76BFD08B1FDF768F8C2
:109C540001A90020FFF7A6FD08B1FDF761F8052171
:109C64000748FFF7E7FD08B1FDF75AF805B05DF8BE
:109C740004FB00BF7AF302002D9A0200B5F3020040
:109C8400A82E002000B54FF40041ADB00020FCF731
:109C940005FD08B1FDF744F8FCF736FC00F0BEFA08
:109CA400FDF794FA08B1FDF73BF8674A67480121CC
:109CB400FDF7BCFA08B1FDF733F8FFF705F908B171
:109CC400FDF72EF8FFF7B2FF04F02EFB08B1FDF705
:109CD40027F8002301A90120019304F0EDFB08B14A
:109CE400FDF71EF801A804F097FC08B1FDF718F879
:109CF400112357488DF8003004F00EFE544982B207
:109D04006846FFF789FE08B1FDF70AF8002108222A
:109D140001A804F0ACFD4F494FF0C87301A8CDE988
:109D24000113FFF777FE08B1FCF7FAFF00214A4858
:109D340002F086F808B1FCF7F3FF484B484801935A
:109D440001A902F073F908B1FCF7EAFF454800F0F5
:109D5400A7F8AC22002101A804F089FD02238DF8A4
:109D640004304FF4C063404AADF806300123ADF827
:109D7400143006928DF880304FF4967244F250639A
:109D8400CDE9232301A9394B39482A9300F0B0FDCA
:109D940008B1FCF7C5FF0121354800F0A6FD1C22DF
:109DA400002101A804F063FD00234FF42032CDE923
:109DB4000132ADF812304FF470228DF814302D4B6F
:109DC4000392069303222C4B8DF8102001A80793CD
:109DD40001F04AF808B1FCF7A3FF02F005FF08B14F
:109DE400FCF79EFF0522002101A804F040FD019B21
:109DF40003F07C42214B134301939DF8083023F078
:109E0400030343F0030301A88DF8083002F086FF32
:109E140008B1FCF785FF1A4802F068FF08B1FCF7A7
:109E24007FFF184B18481949C01AC008000440F0B5
:109E34000300FCF7F7FDFFF7D9FEFCF789FC0028C7
:109E4400FBD1FFF757F8F8E79D9A0200BCF3020034
:109E5400C0F302005000A000B42E0020299A020092
:109E6400E42E0020C82E002040220020A59B0200E2
:109E7400302C0020899B02002B9C02003107100328
:109E84000D9C020010EA020040EA0200C9F302003D
:109E9400A8DF7047AADF7047AEDF704762DF704704
:109EA4002DE9F0434FF6FF730380A24B9BB006AA43
:109EB40003F1100604461746B1461868596815465A
:109EC40003C50833B3422A46F7D14FF20D030DF10F
:109ED40012013846ADF81030FFF7E0FF08B1FCF787
:109EE4001FFF22464FF6FF7322F8023B04A901200C
:109EF400FFF7CEFF08B1FCF713FF0AAA8D4B90467B
:109F040018685968154603C508334B452A46F7D1E6
:109F14004DF2D1130DF116014046ADF81430FFF7A0
:109F2400BDFF08B1FCF7FCFE1C22002113A804F0BD
:109F34009EFC9DF84C3002AE23F00A0343F002036A
:109F44000322002130468DF84C3004F090FC41F29D
:109F54001113ADF808309DF80A301896012767F3FD
:109F640042038DF80A309DF84C3003AD43F01003E2
:109F74000322002128468DF84C3004F078FC11238C
:109F8400ADF80C309DF80E30142267F34203002123
:109F94000EA88DF80E3004F06AFC05ABCDE90E3541
:109FA4000223ADF84430ADF84030B9F80030ADF8D4
:109FB400043001AB12930EAA231D13A96088FFF786
:109FC40069FF08B1FCF7ACFE5A4B4746186859685C
:109FD4003A4603C208334B451746F7D14BF6BA232A
:109FE4000DF116014046ADF81430FFF757FF08B1E4
:109FF400FCF796FE1C22002113A804F038FC9DF8FF
:10A004004C3023F00A0343F00203032200213046BC
:10A014008DF84C3004F02BFC41F21113ADF80830EC
:10A024009DF80A301896012767F342038DF80A3029
:10A034009DF84C30032243F01003002128468DF88C
:10A044004C3004F014FC1123ADF80C309DF80E30A4
:10A05400142267F3420300210EA88DF80E3004F099
:10A0640006FC0223ADF84430ADF84030B9F80030B6
:10A07400ADF8043001AB05AF12930EAA04F10C0342
:10A0840013A96088CDE90E75FFF704FF08B1FCF74A
:10A0940047FE284BC44618685968624603C2083311
:10A0A4004B459446F7D14BF6EF630DF1160140464C
:10A0B400ADF81430FFF7F2FE08B1FCF731FE1C22B4
:10A0C400002113A804F0D3FB9DF84C3023F00A03BD
:10A0D40043F00A030322002128468DF84C3004F093
:10A0E400C6FB41F21113ADF80C309DF80E304FF061
:10A0F400010868F34203142200210EA88DF80E30E3
:10A1040004F0B5FB0C4B60881B788DF808300EAA60
:10A1140004F1140313A9CDE90E75ADF84480ADF82C
:10A1240040801296FFF7B6FE08B1FCF7F9FD1BB0AC
:10A13400BDE8F08302F40200F02E002070B515464D
:10A1440002884FF6FF739A4286B004460E4618D032
:10A15400CDB902231022294602A8ADF8063004F036
:10A1640086FBA389ADF8083001238DF80A30ADF8D9
:10A174000C500DF1060302A92088CDE90436FFF73F
:10A184008BFE06B070BD012DFBD1022310220021ED
:10A1940002A8ADF8063004F06AFBA388ADF80830D5
:10A1A40000238DF80A50ADF80C30E2E71F288CBF6D
:10A1B400094A4FF0A0424FF00103D2F8041588BFBA
:10A1C40000F01F0003FA00F020EA01030840C2F87F
:10A1D4000835C2F80C057047000300501F2886BFDD
:10A1E40000F01F00044B4FF0A04300F5E070032281
:10A1F40043F82020704700BF000300501F2886BF8B
:10A2040000F01F00044A4FF0A042012303FA00F0BB
:10A21400C2F80805704700BF0003005008B51620B7
:10A22400FFF7DCFF1720FFF7D9FF1820FFF7D6FF51
:10A234001F20FFF7D3FF1C20FFF7D0FF2D20FFF7CF
:10A24400DDFF2D20FFF7CAFF024B0C22C3F838278D
:10A2540008BD00BF000300504FF0A0434FF0E07270
:10A26400C3F80825C3F80C0570471F20FFF79EBFED
:10A274000369C1688B429DBF8268D21802F1FF3224
:10A2840003F1FF3394BF501A581A70472DE9F04177
:10A29400D0E9027405463E1B406896422044884635
:10A2A400144404D904F0BAFAEC60BDE8F0813246F3
:10A2B400E41B04F0B3FA224608EB06016868F1E7F0
:10A2C4002DE9F843C5680646894617464FF000084D
:10A2D4003469B3687068A54228BFE418013C621B66
:10A2E4005C1BBC4228BF3C46944228BF14464946E6
:10A2F4002844224604F092FAB3682544AB4208BFCE
:10A3040000253F1BA044A144F560E1D14046BDE8CF
:10A31400F883000010B5114C114AA2610223C4E96C
:10A324000433104BE361A2644FF400730E4A2362BA
:10A33400E264002310220D49A362E01D6362E3621C
:10A34400A3656365E365226504F0C4FA0849204601
:10A3540004F0C0FA2023A37110BD00BFF42E002026
:10A3640014F402007C2F00206C2F00201DF4020046
:10A3740021F40200F8B5184C182300FB033503FB45
:10A3840000402544C46A012C0F46164611D024B15E
:10A39400022C1BD000242046F8BD2846FFF768FF96
:10A3A400B042F8D3324639462846FFF76FFF3446A9
:10A3B400F1E72846FFF75CFF8642344628BF04468F
:10A3C400224639462846FFF761FFE4E72846BDE800
:10A3D400F840FFF775BF00BFF42E0020FFF79ABFC7
:10A3E4006DDF704779DF70477DDF704764DF70474A
:10A3F4002DE9F74F0C9CBDF834B027880025804622
:10A404008A4691462E46B8F80020B2420BDC35B19C
:10A414002288013AD21B92B2FF2A39D8DA55002099
:10A4240003B0BDE8F08FD8F8042052F8260001905C
:10A4340000220DF1030101A8FFF7D8FF0028EFD196
:10A444009DF803204A4521D12288002D14BF002005
:10A45400022002EB09010144594519DC3DB90132DE
:10A4640092B2228003F802A022880132228022883C
:10A474000DF103011A4401A8FFF7B8FF0028CFD15A
:10A4840021889DF803200A44228001250136BAE779
:10A494000C20C5E72DE9F341089CBDF8245017466C
:10A4A400CDE9004502220646FFF7A2FF48B9102273
:10A4B40039463046CDE9084502B0BDE8F041FFF722
:10A4C40097BF02B0BDE8F0812DE9F04F0023168854
:10A4D400138090F82D3085B007460D46144653B3CB
:10A4E400082E01D80C2028E102A8FFF779FF0028E4
:10A4F40040F0238113880822CA54238801339BB275
:10A504001B222380CA542088013080B22080062276
:10A514000DF10901284404F081F923889DF80820ED
:10A5240006339BB212F0FE0218BF01222380EA54C4
:10A53400238801332380BB78FBB123880433B342DF
:10A54400D0D802A8FFF74EFF002840F0F6802388F9
:10A554000322EA54238801339BB219222380EA544C
:10A564002388BDF8082001339BB2E9182380EA54FC
:10A57400120A4A70238802332380FA789AB1238816
:10A58400D91CB142AED80221E954238801339BB2CD
:10A5940001212380E95423880B449BB22380EA548D
:10A5A40023880B4423807A68AAB12388D91CB1423A
:10A5B40098D8022192F90020E954238801339BB2F0
:10A5C4000A212380E954238801339BB22380EA546F
:10A5D4002388013323803B89002B40F0A2803B8AEF
:10A5E4005BB1CDE900462B460722032107F1100099
:10A5F400FFF750FF002840F0A0803B8B5BB1CDE912
:10A6040000462B461522142107F11800FFF742FFDC
:10A61400002840F092803A6A002A40F09180D7F8EE
:10A624002480B8F1000F30D0B8F804302188981C89
:10A634008A1C0244B2423FF655AFFE283FF652AFA1
:10A6440003336B54238801339BB2FF222380EA54E3
:10A65400238801339BB22380B8F80020EA54E91818
:10A66400120A4A702088023080B22080B8F8042090
:10A674005AB1D8F8081000296CD0284404F0CEF858
:10A684002388B8F804201344238097F82C30002B37
:10A6940040F09B80387800284FD03B88012B59D05C
:10A6A400228802F1020CB4453FF61CAF012805D103
:10A6B4007B78023313449E42FFF414AF023EB61A71
:10A6C400B6B202A905EB0C00ADF80860FFF78CFEEA
:10A6D40098BB3978BDF80820022900F0BB807B784C
:10A6E400934202D3B24240F2B380012940F0B480D5
:10A6F4009BB29E42C0F0B080ADF808300821BDF88E
:10A704000830FE2B3FF6EEAE22880133AB5422888C
:10A71400013292B22280A95422881344238000205B
:10A724000BE0CDE900462B460622022107F1080082
:10A73400FFF7B0FE00283FF452AF05B0BDE8F08F3C
:10A74400B4F800C00CF10603B3423FF6CBAE118857
:10A75400052901D80720F0E76FF4486E01EB0E03DA
:10A764009BB24FF27D3E7345F4D95388052BF1D942
:10A774006FF44860181880B27045EBD94FF6FF703B
:10A78400814203D0834201D09942E3D8052305F8DE
:10A794000C30238801339BB212212380E95423888F
:10A7A40001339BB223801188E954E818090A4170E7
:10A7B400238802339BB223805288EA54E918120A90
:10A7C4004A7023880233238029E7BB6A002BC1D057
:10A7D4004FF000094FF00C0A4FF0160B97F82C308D
:10A7E4005FFA89F293427FF655AFB96A0AFB02F227
:10A7F40001EB0208B8F80430981CFE283FF672AE4C
:10A80400208803332B54238801339BB2238005F81B
:10A8140003B0238801339BB223808A5AEA54E9188F
:10A82400120A4A702088023080B22080B8F80420CE
:10A834005AB1D8F8081000298CD0284403F0EEFF50
:10A844002388B8F804201344238009F10109C5E7DB
:10A85400092154E7B242FBD9ADF808604EE770B560
:10A86400C0B14AB116880024B44203D305196D78E7
:10A874009D4208D0A14201D800200BE0055D0135BE
:10A884002C44A4B2F0E7A142F6D9A31C1380005DC6
:10A89400013880B270BD13B50023ADF806301346FD
:10A8A4000DF106020446FFF7DAFF10B1BDF8060009
:10A8B400204402B010BD72DF704773DF704738B5B3
:10A8C400012204460D46B0F83812D0F83402FFF7DE
:10A8D400E2FF00B1057004F13C0204F50D7104F1CE
:10A8E4005400BDE83840FFF7E6BF80F830107047E9
:10A8F400F8B504460F4600296DD000286BD091F8B6
:10A904007A301BB191F89830002B66D107F17806A4
:10A914000FCE4FF0000C251D84F802C00FC50FCEDA
:10A924000FC596E8070085E8070084F830C0D7F81B
:10A93400A4306363D7F8A830A3634FF6FF7504F51A
:10A944000D73C4F84432A4F848520722614604F255
:10A954004A2003F08CFF23780BB984F8545094F800
:10A964002430002B14BFEE231F2304F15501C4F837
:10A974003412A4F8383204F50E723846FFF7A4FDF9
:10A9840040BB94F82430002B14BFEE231F2304F2A1
:10A994004311C4F83C12A4F8403204F5107207F1D4
:10A9A4003C00FFF791FDA8B9A369A4F848304FF41F
:10A9B40080720123A4F85020626920646264014615
:10A9C40084F83C3004F13C0204F15400FFF773FFB7
:10A9D40000B92370F8BD0E20FCE70720FAE7F8B5AC
:10A9E400077804460D46002F00F0078100F24A263E
:10A9F400A17007220021304603F039FFE38813B128
:10AA0400A378012B04D0E3794BB1A378022B06D1B0
:10AA1400636B9BB1012284F8512208209847324687
:10AA240004F5147112F8013F5BB98A42FAD16A1E27
:10AA3400032A52D8DFE802F0070D111484F85132CA
:10AA4400EDE73B46F3E7A2791AB194F8242002B962
:10AA54005BB9E2790AB1002B41D1237A002B40D1B2
:10AA6400637A002B0CBF00250425636BA570002BB3
:10AA740039D0033D012D36D86279A2B394F852221D
:10AA84008ABB84F85422012284F853220720984771
:10AA940004F13C0518220021284603F0E8FEE26A8E
:10AAA4000123511E994284F83C3001D9042A1ED155
:10AAB400D3B294F8242084F851301AB1CFB1A36AE8
:10AAC40084F85230A178002384F8503004291FD828
:10AAD400DFE801F07B1126395D000025C5E702257A
:10AAE400C3E70325C1E7002384F85332D0E70027E6
:10AAF400DFE70123E4E7C4F84432C4E91063022326
:10AB0400012284F83C30802384F83120A4F84830B2
:10AB1400A378002B5CD1636B002B6AD1002067E023
:10AB24000223002A84F8313014BF0723032384F856
:10AB34003C302369A4F848300023C4F84432E36865
:10AB440026646364E4E763696364A369A4F8483032
:10AB540012B1062384F83C306379B3B194F85232CD
:10AB64009BB994F8543283B1022384F85030042101
:10AB74002046FFF7A4FE0028CAD1052384F831300B
:10AB840004F50D73C4F84432C2E70323F6E7E3691E
:10AB94006364236AA4F8483012B1062384F83C3075
:10ABA400637983B194F852326BB994F8543253B147
:10ABB400022384F8503004212046FFF780FE002849
:10ABC400A6D10623DAE70423D8E784F831309FE7D7
:10ABD4002A46D4F8441204F15400FFF76CFE38B945
:10ABE40094F8301094F85400FFF767FE002892D0D0
:10ABF400F8BD94F83100984790E70820F8E70388F7
:10AC0400112B10B50C460AD0262B1FD0102B05D1C2
:10AC1400C37B012B02D18388A1F8483210BD0022E6
:10AC2400838881F85222B1F848229A42F6D10B79EE
:10AC3400002BF3D101212046FFF7D1FE0028EDD0EF
:10AC4400A36B002BEAD0BDE810401847037A013B00
:10AC5400012BE3D8897805230131B1FBF3F303EB2E
:10AC64008303C91AC9B2E6E7704775DF704776DF18
:10AC740070477ADF70477BDF70470000034B1A8808
:10AC840082420CBF18460020704700BF9831002054
:10AC9400024B9B6903B11847704700BF7C31002009
:10ACA40037B585B22846FFF7E9FF034670B1164C65
:10ACB400017A227B91420BD200F10A012846FFF768
:10ACC400D4FFE8B1112801D0FFF7E2FF03B030BD93
:10ACD400237C0022027243B13B212846FFF7C7FFC1
:10ACE40030F0080301D0FFF7D3FF6369002BEDD0E8
:10ACF40000228DF80420ADF8065001A89847E5E736
:10AD04001A7A01321A72E1E77C31002013B50B463E
:10AD1400497A0F4C024669B9D4E901101C7A002C17
:10AD240018BF01465868FCF793FA08B1FFF7B0FF63
:10AD340002B010BD002119726369002BF8D0012103
:10AD4400ADF806008DF8041001A89847F0E700BF9D
:10AD54007C3100204B8802889A4213D842889A4258
:10AD640010D380888A8840F2F313984294BF031A60
:10AD7400C31A934206D800F2F310904234BF002065
:10AD840001207047002070470388112B70B50146DD
:10AD940048D002D8102B1ED070BD122B52D0502B8D
:10ADA400FAD12F4BC288DB899A42F5D1038A022B50
:10ADB400F2D186883046FFF761FF05460028EBD0C4
:10ADC40001F1120000F0C2F930BB6868FCF786FAA2
:10ADD4000028E1D009E0C37B012BDDD14FF6FF70E1
:10ADE400FFF74CFF054620B90420BDE87040FFF78B
:10ADF4004FBF1C4A8E880680002303721368C5F86F
:10AE04000A300A30536843601031FFF7A3FF144B34
:10AE14006872DB89002BBFD129463046BDE87040FB
:10AE2400FFF774BF8088FFF729FF04460028B3D0DA
:10AE34004068FCF753FA08B1FFF72AFF4FF6FF7397
:10AE44002380A9E786883046FFF718FF05460028C7
:10AE5400A2D008310A30FFF77DFF6872DCE700BF3B
:10AE64007C310020AC310020F8B5064648B30546D5
:10AE74000FCD154F3C460FC495E8070084E8070042
:10AE84003068124B3B60B0B1FFF7F3FEC0B93168D4
:10AE94000A681A604A685A600D480E4A4FF6FF73F2
:10AEA40003800D4B40F8043F0021FCF7BFF9002854
:10AEB40018BF032004E01846FFF7DDFE0028EBD09E
:10AEC400F8BD0E20FCE700BF7C310020AC3100202F
:10AED40098310020A5AC0200B4310020F7B5174624
:10AEE40001900E4691B1019C6CB100252C46294677
:10AEF40001A8FDF7D1F918B13946A8B2B047013419
:10AF04000135142DF3D1204603B0F0BD0C46FAE709
:10AF140073B50191019C06466CB100252C46294667
:10AF240001A8FDF7B9F918B106EB440301349D807B
:10AF34000135142DF3D13046346002B070BD0000E9
:10AF44002DE9F04703888488112B8CB006463CD049
:10AF54001A2B3FD0102B17D1274DAB68DB4300933E
:10AF640069686846FDF7F9F9009901A8FFF7D0FF71
:10AF74000DF108094FF00008019B984507D3132CE5
:10AF840013D90420FBF7CCFE0CB0BDE8F08739F8E8
:10AF940002AB00270137514605EB8700FDF772F934
:10AFA4001D2FF7D108F10108E6E721461348FDF704
:10AFB40052F921461248FDF74EF9F37B012BE3D0F9
:10AFC40010482146FDF747F9DEE70C482146FDF716
:10AFD40059F9D9E7057A0C482D09012D214606D9DE
:10AFE400FDF739F9022D21460848F0D0EAE7FDF7CC
:10AFF40049F921460548EAE7D4310020DC31002034
:10B00400D8310020E0310020E4310020E831002074
:10B014001328014602D80248FDF73EB900207047C4
:10B02400D831002010B50446FFF7F2FF38B12146AD
:10B034000348FDF731F9002814BF0220012010BD98
:10B04400E031002010B50446FFF7E2FF38B1214695
:10B054000348FDF721F9002814BF0220012010BD88
:10B06400DC31002010B50446FFF7D2FF28B1214699
:10B074000248BDE81040FDF70FB910BDE4310020CF
:10B0840010B50446FFF7C4FF28B121460248BDE8C5
:10B094001040FDF701B910BDE831002008B51821B2
:10B0A4000248FDF702F9C0B208BD00BFD431002048
:10B0B40070B50A4D064628460C46FDF7EDF858B122
:10B0C4003046FFF7A5FF38B1A01D314605EB8000DF
:10B0D400BDE87040FDF7E0B8002070BDD431002019
:10B0E400F8B50D4C054620460E461746FDF7D4F834
:10B0F40080B12846FFF78CFF60B1B01D04EB8000DF
:10B1040029461FB1BDE8F840FDF7A5B8BDE8F840F1
:10B11400FDF7B8B8F8BD00BFD4310020F8B50A4C2B
:10B1240005460E46014620461746FDF7B5F848B1D8
:10B13400043504EB85043A46A0683146BDE8F8407E
:10B14400FFF7CCBEF8BD00BFD4310020007800F07A
:10B1540001007047A0DF7047024B034918780022B2
:10B16400FFF7DCBF533200209DB2020013B5042266
:10B1740004460021684603F07AFB42F6A623ADF8A4
:10B18400003001238DF80230044B1868019001AAA5
:10B1940069462046FFF7DEFF02B010BD28F4020026
:10B1A40010B50446408800F09FFCA0802046BDE80E
:10B1B400104001F015BD30B587B005460C46182285
:10B1C4000021684603F053FB072368468DF80030DE
:10B1D400ADF802500294FFF7E3FF07B030BD000062
:10B1E40070B586B0054618220021684603F03FFB7F
:10B1F4004FF6FF739D42ADF802503FD0284600F051
:10B2040061FB0B28044624D014D8D8B12046FDF79E
:10B21400D5FE1B4E1B4B1C49F61AF6083604024693
:10B224002B4646F00100FBF70AFC21462846FFF7AF
:10B23400C2FF05E011281BD043F202039842E5D176
:10B24400002216E00E238DF800306846FFF7A8FFB1
:10B25400F6E70F238DF8003009480A4B0B49C01A52
:10B26400C00800042A4640F00200FBF7DFFBECE7CD
:10B274000122074B28461978FFF732FF06B070BD4C
:10B2840080EA020010EA020043F60200C3F502005D
:10B2940051320020FFF7A4BF2DE9F0412D4D86B0B7
:10B2A40029780446FFF704FFA8460746002849D139
:10B2B400204600F06BFB0828054632D016D808B3A8
:10B2C40006282ED02846FDF779FE234E234B244929
:10B2D400F61AF60836040246234646F00100FBF748
:10B2E400AEFB29462046FFF766FF09E043F202035E
:10B2F400984205D043F20143984226D01128E1D167
:10B30400012214E039461822684603F0B0FA1023EB
:10B3140068468DF80030ADF802400127FFF740FF82
:10B32400EEE7204600F0E0FB00F05CFB00220D4B52
:10B3340020461978FFF7D4FE3A4698F800102046C4
:10B34400FFF7CEFE06B0BDE8F0812046FFF748FFC8
:10B35400D6E700BF5432002080EA020010EA02005F
:10B3640094F602005332002013B5044600F0BCFBEF
:10B3740000236A46092101F00BF8052805D1044B86
:10B38400012219782046FFF7ABFE02B010BD00BFC2
:10B394005032002008B5084B084918780022FFF7FE
:10B3A400BDFE024630B9064B06491878BDE8084090
:10B3B400FFF7B4BE08BD00BF52320020CDB3020077
:10B3C4005032002071B1020070B5012186B00646EA
:10B3D4002B48FCF797FF0446BFF35F8F002849D141
:10B3E400304600F013FA1128054638D016D8002844
:10B3F40042D02846FDF7E2FD224C234B2349E41AB0
:10B40400E40824040246334644F00100FBF717FB2A
:10B4140029463046FFF7CFFE002405E0862805D0F4
:10B4240043F202039842E4D1224619E0214618224D
:10B43400684603F01CFA06238DF800301148124BBD
:10B444001349ADF80260C01AC0080004324640F047
:10B454000200FBF7EBFA6846FFF7A2FEE4E70122DD
:10B464000C4B30461978FFF73BFE1CB9BFF35F8FD6
:10B47400034B1C6006B070BD01240246F0E700BF18
:10B484004C32002080EA020010EA020069F4020053
:10B4940034F402005232002038B503780446A3B9CC
:10B4A4004088FFF79DFE6588284600F05DFA28B1C4
:10B4B400064B012219782846FFF712FE6088FFF731
:10B4C40053FFBDE83840FFF765BF38BD5332002055
:10B4D4000378082B37B5044630D1427A72BB057A1B
:10B4E400072D1BD0082D2DD0012D27D16A462946C2
:10B4F400808801F0CBF908BB019B1B78F3B1A088CD
:10B5040000F020FB4FF6FF73984217D0114B2A46E8
:10B514001978FFF7E5FDFFF71FFE0FE0808800F0C4
:10B5240011FB4FF6FF739842044607D00A4B0122E1
:10B534001978FFF7D5FD2046FFF716FFFFF72AFF1E
:10B5440003B030BD054B19680129F7D1BFF35F8FF4
:10B554001A60F3E753320020523200204C320020AC
:10B56400F8B5FFF79BFD194F194E3870FFF796FD9C
:10B574003070FFF793FD174D174C2870FFF78EFDC1
:10B584002070FFF78BFD154B18703B78182B0AD0F1
:10B594003378182B07D02B78182B04D02378182B4A
:10B5A40001D018280BD10E4B0E480F49C01AC00801
:10B5B400000440F00100FBF735FA0320F8BD0B4B03
:10B5C40000201860BFF35F8FF8E700BF52320020FD
:10B5D40051320020533200205432002050320020D7
:10B5E40010EA020080EA020054F502004C32002006
:10B5F40013B501230024ADF800300923104AADF837
:10B6040002408DF802300F4BA14214BF1946114677
:10B61400019100F069FA2246694600F025FF60B105
:10B62400FDF7CCFC084A094B09499B1ADB081B04AB
:10B63400024643F00200FBF7F9F902B010BD00BF67
:10B644002CF4020030F4020010EA020080EA020046
:10B65400D4F6020030B503888588502B87B00446A1
:10B6640035D00BD8352B45D03D4B3E4918780022B8
:10B67400FFF754FDFFF770FD07B030BD522B22D009
:10B68400542BF1D118220021684603F0F0F811235D
:10B6940028468DF80030ADF8025000F025FAADF8D8
:10B6A400040000F09FF9304B284619780022FFF778
:10B6B40017FD2E4B284600221978FFF711FD684626
:10B6C400FFF76EFDD0E72846FFF78AFDCCE7037B42
:10B6D400012BC9D1827A012AC6D1018942F602130B
:10B6E4009942C1D1224B28461978FFF7F9FCFFF79C
:10B6F40051FEB9E71F4B002219782846FFF7F0FCEA
:10B70400E288B2F5857F0AD05AB11B481B4B1C490D
:10B71400C01AC008000440F00200FBF787F90021BA
:10B724001AE06289012A09D01348144B1549C01A3A
:10B73400C008000440F00200FBF778F9A289012A4E
:10B7440006D00D480D4B1049C01AC0080004E2E7AA
:10B75400A17B003118BF01212846FFF749FF83E789
:10B764005132002099B2020054320020533200209A
:10B77400523200205032002080EA020010EA020017
:10B78400A6F40200E0F402001AF50200AFDF7047ED
:10B79400B1DF7047B2DF7047B3DF704773B50F4B4B
:10B7A4000F4C93E803006D4685E803000022294608
:10B7B400208800F059FE4FF6FF762388B34201D06B
:10B7C400112801D102B070BD184600F0B0FE00226D
:10B7D4002946208000F048FEEFE700BF44F702004E
:10B7E40056320020044B1A884FF6FF739A4201D058
:10B7F400FFF7D4BF704700BF56320020024B4FF60C
:10B80400FF721A8000207047563200202DE9F3475A
:10B81400804600F069F94FF6FF739842074647D017
:10B82400254E264BDFF898A0F61AF608360446F0A3
:10B83400010601226B460821384602F1010901F094
:10B8440029F81FFA89F9054668BB01990A460323BA
:10B8540042F8043B06314046FFF79CFF044648B9D2
:10B864003A460821384601F0D9F80446204602B089
:10B87400BDE8F0870C2814D0052800D12C460821F7
:10B88400384601F079F840B1FDF798FB3A46034693
:10B8940051463046FBF7D3F803244A46002DC9D15C
:10B8A400E4E70125EBE7072814BF04460C24DDE791
:10B8B40043F20204DAE700BF88EA020010EA020059
:10B8C400CCF702002DE9F341064600F00DF94FF6DE
:10B8D400FF73984222D10024032527464FF0010824
:10B8E4002B46224639463046FFF752FF04282BD018
:10B8F400082830D00B2828D115F0020319D1E7B954
:10B90400FCB91648164B1749C01AC0080004324641
:10B9140040F00100FBF78AF80B2019E06A46082181
:10B9240000F0B4FF0028D6D1019B9F1D9C881D68A0
:10B93400D4E701254FF00008D2E703251C461F4633
:10B94400F8E703253C46F5E71120B8F1000FE3D0F2
:10B9540002B0BDE8F0810020F7E700BF88EA0200EA
:10B9640010EA020054F702001FB50DF10703039318
:10B9740000F0BAF802AA012100F088FF20B9039B65
:10B98400187805B05DF804FB0020FAE738B50446E2
:10B994001048FFF701FF70B90E4B43F203054FF651
:10B9A400FF7219882046FFF7F1FEA84211D11A88C8
:10B9B40001321A80F3E7FDF701FB074A074B0849F8
:10B9C4009B1ADB081B04024643F00100FBF72EF828
:10B9D400032038BD5832002010EA020088EA020031
:10B9E4004BF8020013B5074A044692E803006B467D
:10B9F40083E8030000221946204600F035FD02B01A
:10BA040010BD00BF4CF7020046DF7047421E00F134
:10BA14000F0312F8010F10B99A42FAD170470120AE
:10BA2400704708B570B171B103780A78534013F0C8
:10BA3400FE0F08D106220131013002F0B4FEB0FA43
:10BA440080F0400908BD0020FCE72DE9F04700F133
:10BA540001084F1C06460D4600F1110901F1110AB7
:10BA640010223946404602F09EFE0446E0B94046A4
:10BA7400FFF7CCFF18B13846FFF7C8FF044651461C
:10BA84004846FFF7CEFF737C03F0FC03042B04D07D
:10BA94006B7C03F0FC03042B02D1201C18BF012093
:10BAA40000F00100BDE8F0870024E8E730B585B078
:10BAB40004460D4600F0A2FC02AA0DF1060107207F
:10BAC40000F0A4FC10B94FF6FF700BE0BDF806308F
